{
  "_format": "hh-sol-artifact-1",
  "contractName": "UserRegistery",
  "sourceName": "contracts/User.sol",
  "abi": [
    {
      "inputs": [],
      "stateMutability": "nonpayable",
      "type": "constructor"
    },
    {
      "inputs": [
        {
          "internalType": "address",
          "name": "owner",
          "type": "address"
        }
      ],
      "name": "OwnableInvalidOwner",
      "type": "error"
    },
    {
      "inputs": [
        {
          "internalType": "address",
          "name": "account",
          "type": "address"
        }
      ],
      "name": "OwnableUnauthorizedAccount",
      "type": "error"
    },
    {
      "anonymous": false,
      "inputs": [
        {
          "indexed": true,
          "internalType": "address",
          "name": "previousOwner",
          "type": "address"
        },
        {
          "indexed": true,
          "internalType": "address",
          "name": "newOwner",
          "type": "address"
        }
      ],
      "name": "OwnershipTransferred",
      "type": "event"
    },
    {
      "anonymous": false,
      "inputs": [
        {
          "indexed": true,
          "internalType": "address",
          "name": "userAddress",
          "type": "address"
        },
        {
          "indexed": false,
          "internalType": "uint32",
          "name": "loyaltyPoints",
          "type": "uint32"
        },
        {
          "components": [
            {
              "internalType": "enum UserRegistery.CouponsEnum",
              "name": "name",
              "type": "uint8"
            },
            {
              "internalType": "uint8",
              "name": "disc",
              "type": "uint8"
            },
            {
              "internalType": "uint8",
              "name": "numOfCoupons",
              "type": "uint8"
            }
          ],
          "indexed": false,
          "internalType": "struct UserRegistery.Couponse[]",
          "name": "personalCoupons",
          "type": "tuple[]"
        },
        {
          "components": [
            {
              "internalType": "string",
              "name": "houseAddress",
              "type": "string"
            },
            {
              "internalType": "uint256",
              "name": "powerUnits",
              "type": "uint256"
            }
          ],
          "indexed": false,
          "internalType": "struct UserRegistery.House[]",
          "name": "houses",
          "type": "tuple[]"
        }
      ],
      "name": "UserDataUpdated",
      "type": "event"
    },
    {
      "inputs": [
        {
          "internalType": "address",
          "name": "",
          "type": "address"
        }
      ],
      "name": "Users",
      "outputs": [
        {
          "internalType": "address",
          "name": "walletAddress",
          "type": "address"
        },
        {
          "internalType": "uint32",
          "name": "loyalityPoints",
          "type": "uint32"
        }
      ],
      "stateMutability": "view",
      "type": "function"
    },
    {
      "inputs": [
        {
          "internalType": "address",
          "name": "user",
          "type": "address"
        },
        {
          "internalType": "uint256",
          "name": "couponEnum",
          "type": "uint256"
        }
      ],
      "name": "availDiscount",
      "outputs": [
        {
          "internalType": "uint256",
          "name": "",
          "type": "uint256"
        }
      ],
      "stateMutability": "view",
      "type": "function"
    },
    {
      "inputs": [
        {
          "internalType": "enum UserRegistery.CouponsEnum",
          "name": "couponName",
          "type": "uint8"
        }
      ],
      "name": "buyCoupons",
      "outputs": [],
      "stateMutability": "nonpayable",
      "type": "function"
    },
    {
      "inputs": [
        {
          "internalType": "address",
          "name": "userAdd",
          "type": "address"
        },
        {
          "internalType": "string",
          "name": "houseAddress",
          "type": "string"
        },
        {
          "internalType": "uint256",
          "name": "numOfUnits",
          "type": "uint256"
        }
      ],
      "name": "deductUnits",
      "outputs": [],
      "stateMutability": "nonpayable",
      "type": "function"
    },
    {
      "inputs": [
        {
          "internalType": "string",
          "name": "homeAddress",
          "type": "string"
        },
        {
          "internalType": "uint256",
          "name": "noOfUnits",
          "type": "uint256"
        }
      ],
      "name": "depositUnits",
      "outputs": [],
      "stateMutability": "nonpayable",
      "type": "function"
    },
    {
      "inputs": [
        {
          "internalType": "address",
          "name": "addr",
          "type": "address"
        },
        {
          "internalType": "string",
          "name": "houseAddress",
          "type": "string"
        }
      ],
      "name": "doExist",
      "outputs": [
        {
          "internalType": "bool",
          "name": "",
          "type": "bool"
        }
      ],
      "stateMutability": "view",
      "type": "function"
    },
    {
      "inputs": [
        {
          "internalType": "address",
          "name": "user",
          "type": "address"
        },
        {
          "internalType": "uint256",
          "name": "couponEnum",
          "type": "uint256"
        }
      ],
      "name": "doesUserHaveCoupon",
      "outputs": [
        {
          "internalType": "bool",
          "name": "",
          "type": "bool"
        }
      ],
      "stateMutability": "view",
      "type": "function"
    },
    {
      "inputs": [],
      "name": "getAllUserCoupons",
      "outputs": [
        {
          "components": [
            {
              "internalType": "enum UserRegistery.CouponsEnum",
              "name": "name",
              "type": "uint8"
            },
            {
              "internalType": "uint8",
              "name": "disc",
              "type": "uint8"
            },
            {
              "internalType": "uint8",
              "name": "numOfCoupons",
              "type": "uint8"
            }
          ],
          "internalType": "struct UserRegistery.Couponse[]",
          "name": "",
          "type": "tuple[]"
        }
      ],
      "stateMutability": "view",
      "type": "function"
    },
    {
      "inputs": [
        {
          "internalType": "string",
          "name": "houseAddr",
          "type": "string"
        }
      ],
      "name": "getUserHouse",
      "outputs": [
        {
          "components": [
            {
              "internalType": "string",
              "name": "houseAddress",
              "type": "string"
            },
            {
              "internalType": "uint256",
              "name": "powerUnits",
              "type": "uint256"
            }
          ],
          "internalType": "struct UserRegistery.House",
          "name": "",
          "type": "tuple"
        }
      ],
      "stateMutability": "view",
      "type": "function"
    },
    {
      "inputs": [
        {
          "internalType": "address",
          "name": "addr",
          "type": "address"
        }
      ],
      "name": "isValidUser",
      "outputs": [
        {
          "internalType": "bool",
          "name": "",
          "type": "bool"
        }
      ],
      "stateMutability": "view",
      "type": "function"
    },
    {
      "inputs": [
        {
          "internalType": "address",
          "name": "addr",
          "type": "address"
        },
        {
          "internalType": "string",
          "name": "houseAddr",
          "type": "string"
        }
      ],
      "name": "isValidUserHouse",
      "outputs": [
        {
          "internalType": "bool",
          "name": "",
          "type": "bool"
        }
      ],
      "stateMutability": "view",
      "type": "function"
    },
    {
      "inputs": [],
      "name": "owner",
      "outputs": [
        {
          "internalType": "address",
          "name": "",
          "type": "address"
        }
      ],
      "stateMutability": "view",
      "type": "function"
    },
    {
      "inputs": [
        {
          "internalType": "string",
          "name": "houseAddr",
          "type": "string"
        }
      ],
      "name": "registerNewHouse",
      "outputs": [],
      "stateMutability": "nonpayable",
      "type": "function"
    },
    {
      "inputs": [],
      "name": "registerUser",
      "outputs": [],
      "stateMutability": "nonpayable",
      "type": "function"
    },
    {
      "inputs": [],
      "name": "renounceOwnership",
      "outputs": [],
      "stateMutability": "nonpayable",
      "type": "function"
    },
    {
      "inputs": [
        {
          "internalType": "address",
          "name": "newOwner",
          "type": "address"
        }
      ],
      "name": "transferOwnership",
      "outputs": [],
      "stateMutability": "nonpayable",
      "type": "function"
    },
    {
      "inputs": [
        {
          "internalType": "address",
          "name": "userAdd",
          "type": "address"
        },
        {
          "internalType": "string",
          "name": "houseAddress",
          "type": "string"
        },
        {
          "internalType": "uint256",
          "name": "numOfUnits",
          "type": "uint256"
        }
      ],
      "name": "widthrawalUnitsFromOrder",
      "outputs": [],
      "stateMutability": "nonpayable",
      "type": "function"
    },
    {
      "inputs": [
        {
          "internalType": "string",
          "name": "houseAddress",
          "type": "string"
        },
        {
          "internalType": "uint256",
          "name": "noOfUnits",
          "type": "uint256"
        }
      ],
      "name": "withdrawalUnits",
      "outputs": [],
      "stateMutability": "nonpayable",
      "type": "function"
    }
  ],
  "bytecode": "0x60806040523480156200001157600080fd5b5033600073ffffffffffffffffffffffffffffffffffffffff168173ffffffffffffffffffffffffffffffffffffffff1603620000885760006040517f1e4fbdf70000000000000000000000000000000000000000000000000000000081526004016200007f9190620001a9565b60405180910390fd5b6200009981620000a060201b60201c565b50620001c6565b60008060009054906101000a900473ffffffffffffffffffffffffffffffffffffffff169050816000806101000a81548173ffffffffffffffffffffffffffffffffffffffff021916908373ffffffffffffffffffffffffffffffffffffffff1602179055508173ffffffffffffffffffffffffffffffffffffffff168173ffffffffffffffffffffffffffffffffffffffff167f8be0079c531659141344cd1fd0a4f28419497f9722a3daafe3b4186f6b6457e060405160405180910390a35050565b600073ffffffffffffffffffffffffffffffffffffffff82169050919050565b6000620001918262000164565b9050919050565b620001a38162000184565b82525050565b6000602082019050620001c0600083018462000198565b92915050565b61399080620001d66000396000f3fe608060405234801561001057600080fd5b50600436106101165760003560e01c8063a3faccfb116100a2578063d66188a311610071578063d66188a3146102e0578063d70d75e5146102fc578063d7e1aa0414610318578063f2fde38b14610334578063f3c95c601461035057610116565b8063a3faccfb14610246578063c49b6d6e14610264578063c93a838114610294578063cdeb485c146102b057610116565b806378e1a363116100e957806378e1a3631461017b57806380c912aa146101975780638b90ff65146101c75780638da5cb5b146101f757806399b956a01461021557610116565b80634560fac11461011b5780634d3820eb146101375780634e446ee814610141578063715018a614610171575b600080fd5b6101356004803603810190610130919061274b565b610380565b005b61013f61062a565b005b61015b600480360381019061015691906127ba565b610785565b6040516101689190612831565b60405180910390f35b6101796108d1565b005b6101956004803603810190610190919061284c565b6108e5565b005b6101b160048036038101906101ac9190612895565b610b09565b6040516101be91906128e4565b60405180910390f35b6101e160048036038101906101dc919061284c565b610bbe565b6040516101ee91906129ca565b60405180910390f35b6101ff610e53565b60405161020c91906129fb565b60405180910390f35b61022f600480360381019061022a9190612a16565b610e7c565b60405161023d929190612a62565b60405180910390f35b61024e610ed0565b60405161025b9190612c0f565b60405180910390f35b61027e600480360381019061027991906127ba565b6112aa565b60405161028b9190612831565b60405180910390f35b6102ae60048036038101906102a9919061274b565b61132e565b005b6102ca60048036038101906102c59190612895565b6115d8565b6040516102d79190612831565b60405180910390f35b6102fa60048036038101906102f59190612c56565b611687565b005b61031660048036038101906103119190612ce3565b611912565b005b610332600480360381019061032d9190612ce3565b611aec565b005b61034e60048036038101906103499190612a16565b611c67565b005b61036a60048036038101906103659190612a16565b611ced565b6040516103779190612831565b60405180910390f35b610388611d91565b600073ffffffffffffffffffffffffffffffffffffffff16600160003373ffffffffffffffffffffffffffffffffffffffff1673ffffffffffffffffffffffffffffffffffffffff16815260200190815260200160002060000160009054906101000a900473ffffffffffffffffffffffffffffffffffffffff1673ffffffffffffffffffffffffffffffffffffffff1603610459576040517f08c379a000000000000000000000000000000000000000000000000000000000815260040161045090612da0565b60405180910390fd5b6000600160003373ffffffffffffffffffffffffffffffffffffffff1673ffffffffffffffffffffffffffffffffffffffff168152602001908152602001600020600101836040516104ab9190612dfc565b908152602001604051809103902060000180546104c790612e42565b905011610509576040517f08c379a000000000000000000000000000000000000000000000000000000000815260040161050090612ebf565b60405180910390fd5b80600160008573ffffffffffffffffffffffffffffffffffffffff1673ffffffffffffffffffffffffffffffffffffffff1681526020019081526020016000206001018360405161055a9190612dfc565b90815260200160405180910390206001015410156105ad576040517f08c379a00000000000000000000000000000000000000000000000000000000081526004016105a490612f51565b60405180910390fd5b80600160008573ffffffffffffffffffffffffffffffffffffffff1673ffffffffffffffffffffffffffffffffffffffff168152602001908152602001600020600101836040516105fe9190612dfc565b9081526020016040518091039020600101600082825461061e9190612fa0565b92505081905550505050565b600073ffffffffffffffffffffffffffffffffffffffff16600160003373ffffffffffffffffffffffffffffffffffffffff1673ffffffffffffffffffffffffffffffffffffffff16815260200190815260200160002060000160009054906101000a900473ffffffffffffffffffffffffffffffffffffffff1673ffffffffffffffffffffffffffffffffffffffff16146106ce576106c933611e18565b610783565b6000600160003373ffffffffffffffffffffffffffffffffffffffff1673ffffffffffffffffffffffffffffffffffffffff1681526020019081526020016000209050338160000160006101000a81548173ffffffffffffffffffffffffffffffffffffffff021916908373ffffffffffffffffffffffffffffffffffffffff16021790555060008160000160146101000a81548163ffffffff021916908363ffffffff16021790555061078133611e18565b505b565b60008073ffffffffffffffffffffffffffffffffffffffff16600160008573ffffffffffffffffffffffffffffffffffffffff1673ffffffffffffffffffffffffffffffffffffffff16815260200190815260200160002060000160009054906101000a900473ffffffffffffffffffffffffffffffffffffffff1673ffffffffffffffffffffffffffffffffffffffff1603610857576040517f08c379a000000000000000000000000000000000000000000000000000000000815260040161084e90613020565b60405180910390fd5b6000600160008573ffffffffffffffffffffffffffffffffffffffff1673ffffffffffffffffffffffffffffffffffffffff168152602001908152602001600020600101836040516108a99190612dfc565b908152602001604051809103902060000180546108c590612e42565b90501415905092915050565b6108d9611d91565b6108e3600061243e565b565b600073ffffffffffffffffffffffffffffffffffffffff16600160003373ffffffffffffffffffffffffffffffffffffffff1673ffffffffffffffffffffffffffffffffffffffff16815260200190815260200160002060000160009054906101000a900473ffffffffffffffffffffffffffffffffffffffff1673ffffffffffffffffffffffffffffffffffffffff16036109b6576040517f08c379a00000000000000000000000000000000000000000000000000000000081526004016109ad9061308c565b60405180910390fd5b6000600160003373ffffffffffffffffffffffffffffffffffffffff1673ffffffffffffffffffffffffffffffffffffffff16815260200190815260200160002060010182604051610a089190612dfc565b90815260200160405180910390206000018054610a2490612e42565b905014610a66576040517f08c379a0000000000000000000000000000000000000000000000000000000008152600401610a5d906130f8565b60405180910390fd5b60405180604001604052808281526020016000815250600160003373ffffffffffffffffffffffffffffffffffffffff1673ffffffffffffffffffffffffffffffffffffffff16815260200190815260200160002060010182604051610acc9190612dfc565b90815260200160405180910390206000820151816000019081610aef91906132c4565b5060208201518160010155905050610b0633611e18565b50565b6000610b13611d91565b6000826002811115610b2857610b27612ab7565b5b9050600160008573ffffffffffffffffffffffffffffffffffffffff1673ffffffffffffffffffffffffffffffffffffffff1681526020019081526020016000206002016000826002811115610b8157610b80612ab7565b5b6002811115610b9357610b92612ab7565b5b815260200190815260200160002060000160019054906101000a900460ff1660ff1691505092915050565b610bc661250a565b600073ffffffffffffffffffffffffffffffffffffffff16600160003373ffffffffffffffffffffffffffffffffffffffff1673ffffffffffffffffffffffffffffffffffffffff16815260200190815260200160002060000160009054906101000a900473ffffffffffffffffffffffffffffffffffffffff1673ffffffffffffffffffffffffffffffffffffffff1603610c97576040517f08c379a0000000000000000000000000000000000000000000000000000000008152600401610c8e906133e2565b60405180910390fd5b6000600160003373ffffffffffffffffffffffffffffffffffffffff1673ffffffffffffffffffffffffffffffffffffffff16815260200190815260200160002060010183604051610ce99190612dfc565b90815260200160405180910390206000018054610d0590612e42565b905011610d47576040517f08c379a0000000000000000000000000000000000000000000000000000000008152600401610d3e9061344e565b60405180910390fd5b600160003373ffffffffffffffffffffffffffffffffffffffff1673ffffffffffffffffffffffffffffffffffffffff16815260200190815260200160002060010182604051610d979190612dfc565b9081526020016040518091039020604051806040016040529081600082018054610dc090612e42565b80601f0160208091040260200160405190810160405280929190818152602001828054610dec90612e42565b8015610e395780601f10610e0e57610100808354040283529160200191610e39565b820191906000526020600020905b815481529060010190602001808311610e1c57829003601f168201915b505050505081526020016001820154815250509050919050565b60008060009054906101000a900473ffffffffffffffffffffffffffffffffffffffff16905090565b60016020528060005260406000206000915090508060000160009054906101000a900473ffffffffffffffffffffffffffffffffffffffff16908060000160149054906101000a900463ffffffff16905082565b60606000600367ffffffffffffffff811115610eef57610eee6125ea565b5b604051908082528060200260200182016040528015610f2857816020015b610f15612524565b815260200190600190039081610f0d5790505b509050600160003373ffffffffffffffffffffffffffffffffffffffff1673ffffffffffffffffffffffffffffffffffffffff1681526020019081526020016000206002016000806002811115610f8257610f81612ab7565b5b6002811115610f9457610f93612ab7565b5b81526020019081526020016000206040518060600160405290816000820160009054906101000a900460ff166002811115610fd257610fd1612ab7565b5b6002811115610fe457610fe3612ab7565b5b81526020016000820160019054906101000a900460ff1660ff1660ff1681526020016000820160029054906101000a900460ff1660ff1660ff1681525050816000600281111561103757611036612ab7565b5b815181106110485761104761346e565b5b6020026020010181905250600160003373ffffffffffffffffffffffffffffffffffffffff1673ffffffffffffffffffffffffffffffffffffffff1681526020019081526020016000206002016000600160028111156110ab576110aa612ab7565b5b60028111156110bd576110bc612ab7565b5b81526020019081526020016000206040518060600160405290816000820160009054906101000a900460ff1660028111156110fb576110fa612ab7565b5b600281111561110d5761110c612ab7565b5b81526020016000820160019054906101000a900460ff1660ff1660ff1681526020016000820160029054906101000a900460ff1660ff1660ff168152505081600160028111156111605761115f612ab7565b5b815181106111715761117061346e565b5b6020026020010181905250600160003373ffffffffffffffffffffffffffffffffffffffff1673ffffffffffffffffffffffffffffffffffffffff16815260200190815260200160002060020160006002808111156111d3576111d2612ab7565b5b60028111156111e5576111e4612ab7565b5b81526020019081526020016000206040518060600160405290816000820160009054906101000a900460ff16600281111561122357611222612ab7565b5b600281111561123557611234612ab7565b5b81526020016000820160019054906101000a900460ff1660ff1660ff1681526020016000820160029054906101000a900460ff1660ff1660ff16815250508160028081111561128757611286612ab7565b5b815181106112985761129761346e565b5b60200260200101819052508091505090565b60006112b4611d91565b6000600160008573ffffffffffffffffffffffffffffffffffffffff1673ffffffffffffffffffffffffffffffffffffffff168152602001908152602001600020600101836040516113069190612dfc565b9081526020016040518091039020600001805461132290612e42565b90501415905092915050565b611336611d91565b600073ffffffffffffffffffffffffffffffffffffffff16600160003373ffffffffffffffffffffffffffffffffffffffff1673ffffffffffffffffffffffffffffffffffffffff16815260200190815260200160002060000160009054906101000a900473ffffffffffffffffffffffffffffffffffffffff1673ffffffffffffffffffffffffffffffffffffffff1603611407576040517f08c379a00000000000000000000000000000000000000000000000000000000081526004016113fe90612da0565b60405180910390fd5b6000600160003373ffffffffffffffffffffffffffffffffffffffff1673ffffffffffffffffffffffffffffffffffffffff168152602001908152602001600020600101836040516114599190612dfc565b9081526020016040518091039020600001805461147590612e42565b9050116114b7576040517f08c379a00000000000000000000000000000000000000000000000000000000081526004016114ae90612ebf565b60405180910390fd5b80600160008573ffffffffffffffffffffffffffffffffffffffff1673ffffffffffffffffffffffffffffffffffffffff168152602001908152602001600020600101836040516115089190612dfc565b908152602001604051809103902060010154101561155b576040517f08c379a000000000000000000000000000000000000000000000000000000000815260040161155290612f51565b60405180910390fd5b80600160008573ffffffffffffffffffffffffffffffffffffffff1673ffffffffffffffffffffffffffffffffffffffff168152602001908152602001600020600101836040516115ac9190612dfc565b908152602001604051809103902060010160008282546115cc919061349d565b92505081905550505050565b6000808260028111156115ee576115ed612ab7565b5b90506000600160008673ffffffffffffffffffffffffffffffffffffffff1673ffffffffffffffffffffffffffffffffffffffff168152602001908152602001600020600201600083600281111561164957611648612ab7565b5b600281111561165b5761165a612ab7565b5b815260200190815260200160002060000160029054906101000a900460ff1660ff161191505092915050565b6000600160003373ffffffffffffffffffffffffffffffffffffffff1673ffffffffffffffffffffffffffffffffffffffff168152602001908152602001600020905060008060028111156116df576116de612ab7565b5b8360028111156116f2576116f1612ab7565b5b036117005760029050611767565b6001600281111561171457611713612ab7565b5b83600281111561172757611726612ab7565b5b036117355760059050611766565b60028081111561174857611747612ab7565b5b83600281111561175b5761175a612ab7565b5b0361176557600a90505b5b5b600a8161177491906134d1565b60ff168260000160149054906101000a900463ffffffff1663ffffffff16116117d2576040517f08c379a00000000000000000000000000000000000000000000000000000000081526004016117c99061355a565b60405180910390fd5b600a816117df91906134d1565b60ff168260000160148282829054906101000a900463ffffffff16611804919061357a565b92506101000a81548163ffffffff021916908363ffffffff16021790555060405180606001604052808460028111156118405761183f612ab7565b5b81526020018260ff168152602001600160ff1681525082600201600085600281111561186f5761186e612ab7565b5b600281111561188157611880612ab7565b5b815260200190815260200160002060008201518160000160006101000a81548160ff021916908360028111156118ba576118b9612ab7565b5b021790555060208201518160000160016101000a81548160ff021916908360ff16021790555060408201518160000160026101000a81548160ff021916908360ff16021790555090505061190d33611e18565b505050565b600073ffffffffffffffffffffffffffffffffffffffff16600160003373ffffffffffffffffffffffffffffffffffffffff1673ffffffffffffffffffffffffffffffffffffffff16815260200190815260200160002060000160009054906101000a900473ffffffffffffffffffffffffffffffffffffffff1673ffffffffffffffffffffffffffffffffffffffff16036119e3576040517f08c379a00000000000000000000000000000000000000000000000000000000081526004016119da906135fe565b60405180910390fd5b60008111611a26576040517f08c379a0000000000000000000000000000000000000000000000000000000008152600401611a1d90613690565b60405180910390fd5b6000600160003373ffffffffffffffffffffffffffffffffffffffff1673ffffffffffffffffffffffffffffffffffffffff168152602001908152602001600020905081816001018585604051611a7e9291906136d5565b90815260200160405180910390206001016000828254611a9e9190612fa0565b92505081905550818160000160148282829054906101000a900463ffffffff16611ac891906136ee565b92506101000a81548163ffffffff021916908363ffffffff16021790555050505050565b6000600160003373ffffffffffffffffffffffffffffffffffffffff1673ffffffffffffffffffffffffffffffffffffffff1681526020019081526020016000206001018484604051611b409291906136d5565b90815260200160405180910390206000018054611b5c90612e42565b90501015611b9f576040517f08c379a0000000000000000000000000000000000000000000000000000000008152600401611b9690613772565b60405180910390fd5b60008111611be2576040517f08c379a0000000000000000000000000000000000000000000000000000000008152600401611bd990613690565b60405180910390fd5b6000600160003373ffffffffffffffffffffffffffffffffffffffff1673ffffffffffffffffffffffffffffffffffffffff168152602001908152602001600020905081816001018585604051611c3a9291906136d5565b90815260200160405180910390206001016000828254611c5a9190612fa0565b9250508190555050505050565b611c6f611d91565b600073ffffffffffffffffffffffffffffffffffffffff168173ffffffffffffffffffffffffffffffffffffffff1603611ce15760006040517f1e4fbdf7000000000000000000000000000000000000000000000000000000008152600401611cd891906129fb565b60405180910390fd5b611cea8161243e565b50565b6000611cf7611d91565b600073ffffffffffffffffffffffffffffffffffffffff16600160008473ffffffffffffffffffffffffffffffffffffffff1673ffffffffffffffffffffffffffffffffffffffff16815260200190815260200160002060000160009054906101000a900473ffffffffffffffffffffffffffffffffffffffff1673ffffffffffffffffffffffffffffffffffffffff1614159050919050565b611d99612502565b73ffffffffffffffffffffffffffffffffffffffff16611db7610e53565b73ffffffffffffffffffffffffffffffffffffffff1614611e1657611dda612502565b6040517f118cdaa7000000000000000000000000000000000000000000000000000000008152600401611e0d91906129fb565b60405180910390fd5b565b6000600160008373ffffffffffffffffffffffffffffffffffffffff1673ffffffffffffffffffffffffffffffffffffffff16815260200190815260200160002090506000600367ffffffffffffffff811115611e7857611e776125ea565b5b604051908082528060200260200182016040528015611eb157816020015b611e9e612524565b815260200190600190039081611e965790505b509050816002016000806002811115611ecd57611ecc612ab7565b5b6002811115611edf57611ede612ab7565b5b81526020019081526020016000206040518060600160405290816000820160009054906101000a900460ff166002811115611f1d57611f1c612ab7565b5b6002811115611f2f57611f2e612ab7565b5b81526020016000820160019054906101000a900460ff1660ff1660ff1681526020016000820160029054906101000a900460ff1660ff1660ff16815250508160006002811115611f8257611f81612ab7565b5b81518110611f9357611f9261346e565b5b602002602001018190525081600201600060016002811115611fb857611fb7612ab7565b5b6002811115611fca57611fc9612ab7565b5b81526020019081526020016000206040518060600160405290816000820160009054906101000a900460ff16600281111561200857612007612ab7565b5b600281111561201a57612019612ab7565b5b81526020016000820160019054906101000a900460ff1660ff1660ff1681526020016000820160029054906101000a900460ff1660ff1660ff1681525050816001600281111561206d5761206c612ab7565b5b8151811061207e5761207d61346e565b5b60200260200101819052508160020160006002808111156120a2576120a1612ab7565b5b60028111156120b4576120b3612ab7565b5b81526020019081526020016000206040518060600160405290816000820160009054906101000a900460ff1660028111156120f2576120f1612ab7565b5b600281111561210457612103612ab7565b5b81526020016000820160019054906101000a900460ff1660ff1660ff1681526020016000820160029054906101000a900460ff1660ff1660ff16815250508160028081111561215657612155612ab7565b5b815181106121675761216661346e565b5b60200260200101819052506000805b60038110156121f2576000846001018260405160200161219691906137b3565b6040516020818303038152906040526040516121b29190612dfc565b908152602001604051809103902060000180546121ce90612e42565b905011156121e55781806121e1906137ce565b9250505b8080600101915050612176565b5060008167ffffffffffffffff81111561220f5761220e6125ea565b5b60405190808252806020026020018201604052801561224857816020015b61223561250a565b81526020019060019003908161222d5790505b5090506000805b60038110156123cf576000866001018260405160200161226f91906137b3565b60405160208183030381529060405260405161228b9190612dfc565b908152602001604051809103902060000180546122a790612e42565b905011156123c25785600101816040516020016122c491906137b3565b6040516020818303038152906040526040516122e09190612dfc565b908152602001604051809103902060405180604001604052908160008201805461230990612e42565b80601f016020809104026020016040519081016040528092919081815260200182805461233590612e42565b80156123825780601f1061235757610100808354040283529160200191612382565b820191906000526020600020905b81548152906001019060200180831161236557829003601f168201915b505050505081526020016001820154815250508383815181106123a8576123a761346e565b5b602002602001018190525081806123be906137ce565b9250505b808060010191505061224f565b508573ffffffffffffffffffffffffffffffffffffffff167f53a4b65f9912ec7fa6e849585f2547dadcb4912969479def94debee2b008b4098660000160149054906101000a900463ffffffff16868560405161242e93929190613915565b60405180910390a2505050505050565b60008060009054906101000a900473ffffffffffffffffffffffffffffffffffffffff169050816000806101000a81548173ffffffffffffffffffffffffffffffffffffffff021916908373ffffffffffffffffffffffffffffffffffffffff1602179055508173ffffffffffffffffffffffffffffffffffffffff168173ffffffffffffffffffffffffffffffffffffffff167f8be0079c531659141344cd1fd0a4f28419497f9722a3daafe3b4186f6b6457e060405160405180910390a35050565b600033905090565b604051806040016040528060608152602001600081525090565b60405180606001604052806000600281111561254357612542612ab7565b5b8152602001600060ff168152602001600060ff1681525090565b6000604051905090565b600080fd5b600080fd5b600073ffffffffffffffffffffffffffffffffffffffff82169050919050565b600061259c82612571565b9050919050565b6125ac81612591565b81146125b757600080fd5b50565b6000813590506125c9816125a3565b92915050565b600080fd5b600080fd5b6000601f19601f8301169050919050565b7f4e487b7100000000000000000000000000000000000000000000000000000000600052604160045260246000fd5b612622826125d9565b810181811067ffffffffffffffff82111715612641576126406125ea565b5b80604052505050565b600061265461255d565b90506126608282612619565b919050565b600067ffffffffffffffff8211156126805761267f6125ea565b5b612689826125d9565b9050602081019050919050565b82818337600083830152505050565b60006126b86126b384612665565b61264a565b9050828152602081018484840111156126d4576126d36125d4565b5b6126df848285612696565b509392505050565b600082601f8301126126fc576126fb6125cf565b5b813561270c8482602086016126a5565b91505092915050565b6000819050919050565b61272881612715565b811461273357600080fd5b50565b6000813590506127458161271f565b92915050565b60008060006060848603121561276457612763612567565b5b6000612772868287016125ba565b935050602084013567ffffffffffffffff8111156127935761279261256c565b5b61279f868287016126e7565b92505060406127b086828701612736565b9150509250925092565b600080604083850312156127d1576127d0612567565b5b60006127df858286016125ba565b925050602083013567ffffffffffffffff811115612800576127ff61256c565b5b61280c858286016126e7565b9150509250929050565b60008115159050919050565b61282b81612816565b82525050565b60006020820190506128466000830184612822565b92915050565b60006020828403121561286257612861612567565b5b600082013567ffffffffffffffff8111156128805761287f61256c565b5b61288c848285016126e7565b91505092915050565b600080604083850312156128ac576128ab612567565b5b60006128ba858286016125ba565b92505060206128cb85828601612736565b9150509250929050565b6128de81612715565b82525050565b60006020820190506128f960008301846128d5565b92915050565b600081519050919050565b600082825260208201905092915050565b60005b8381101561293957808201518184015260208101905061291e565b60008484015250505050565b6000612950826128ff565b61295a818561290a565b935061296a81856020860161291b565b612973816125d9565b840191505092915050565b61298781612715565b82525050565b600060408301600083015184820360008601526129aa8282612945565b91505060208301516129bf602086018261297e565b508091505092915050565b600060208201905081810360008301526129e4818461298d565b905092915050565b6129f581612591565b82525050565b6000602082019050612a1060008301846129ec565b92915050565b600060208284031215612a2c57612a2b612567565b5b6000612a3a848285016125ba565b91505092915050565b600063ffffffff82169050919050565b612a5c81612a43565b82525050565b6000604082019050612a7760008301856129ec565b612a846020830184612a53565b9392505050565b600081519050919050565b600082825260208201905092915050565b6000819050602082019050919050565b7f4e487b7100000000000000000000000000000000000000000000000000000000600052602160045260246000fd5b60038110612af757612af6612ab7565b5b50565b6000819050612b0882612ae6565b919050565b6000612b1882612afa565b9050919050565b612b2881612b0d565b82525050565b600060ff82169050919050565b612b4481612b2e565b82525050565b606082016000820151612b606000850182612b1f565b506020820151612b736020850182612b3b565b506040820151612b866040850182612b3b565b50505050565b6000612b988383612b4a565b60608301905092915050565b6000602082019050919050565b6000612bbc82612a8b565b612bc68185612a96565b9350612bd183612aa7565b8060005b83811015612c02578151612be98882612b8c565b9750612bf483612ba4565b925050600181019050612bd5565b5085935050505092915050565b60006020820190508181036000830152612c298184612bb1565b905092915050565b60038110612c3e57600080fd5b50565b600081359050612c5081612c31565b92915050565b600060208284031215612c6c57612c6b612567565b5b6000612c7a84828501612c41565b91505092915050565b600080fd5b600080fd5b60008083601f840112612ca357612ca26125cf565b5b8235905067ffffffffffffffff811115612cc057612cbf612c83565b5b602083019150836001820283011115612cdc57612cdb612c88565b5b9250929050565b600080600060408486031215612cfc57612cfb612567565b5b600084013567ffffffffffffffff811115612d1a57612d1961256c565b5b612d2686828701612c8d565b93509350506020612d3986828701612736565b9150509250925092565b600082825260208201905092915050565b7f5573657220646f65732774204578697374000000000000000000000000000000600082015250565b6000612d8a601183612d43565b9150612d9582612d54565b602082019050919050565b60006020820190508181036000830152612db981612d7d565b9050919050565b600081905092915050565b6000612dd6826128ff565b612de08185612dc0565b9350612df081856020860161291b565b80840191505092915050565b6000612e088284612dcb565b915081905092915050565b7f4e487b7100000000000000000000000000000000000000000000000000000000600052602260045260246000fd5b60006002820490506001821680612e5a57607f821691505b602082108103612e6d57612e6c612e13565b5b50919050565b7f486f75736520646f65736e277420657869737400000000000000000000000000600082015250565b6000612ea9601383612d43565b9150612eb482612e73565b602082019050919050565b60006020820190508181036000830152612ed881612e9c565b9050919050565b7f557365722073686f756c64206861766520706f77657220756e69747320696e2060008201527f7468656972206163636f756e742e000000000000000000000000000000000000602082015250565b6000612f3b602e83612d43565b9150612f4682612edf565b604082019050919050565b60006020820190508181036000830152612f6a81612f2e565b9050919050565b7f4e487b7100000000000000000000000000000000000000000000000000000000600052601160045260246000fd5b6000612fab82612715565b9150612fb683612715565b9250828201905080821115612fce57612fcd612f71565b5b92915050565b7f5573657220646f65736e27742065786973740000000000000000000000000000600082015250565b600061300a601283612d43565b915061301582612fd4565b602082019050919050565b6000602082019050818103600083015261303981612ffd565b9050919050565b7f55736572206973206e6f74207265676973746572000000000000000000000000600082015250565b6000613076601483612d43565b915061308182613040565b602082019050919050565b600060208201905081810360008301526130a581613069565b9050919050565b7f486f75736520697320416c726561647920657869737473000000000000000000600082015250565b60006130e2601783612d43565b91506130ed826130ac565b602082019050919050565b60006020820190508181036000830152613111816130d5565b9050919050565b60008190508160005260206000209050919050565b60006020601f8301049050919050565b600082821b905092915050565b60006008830261317a7fffffffffffffffffffffffffffffffffffffffffffffffffffffffffffffffff8261313d565b613184868361313d565b95508019841693508086168417925050509392505050565b6000819050919050565b60006131c16131bc6131b784612715565b61319c565b612715565b9050919050565b6000819050919050565b6131db836131a6565b6131ef6131e7826131c8565b84845461314a565b825550505050565b600090565b6132046131f7565b61320f8184846131d2565b505050565b5b81811015613233576132286000826131fc565b600181019050613215565b5050565b601f8211156132785761324981613118565b6132528461312d565b81016020851015613261578190505b61327561326d8561312d565b830182613214565b50505b505050565b600082821c905092915050565b600061329b6000198460080261327d565b1980831691505092915050565b60006132b4838361328a565b9150826002028217905092915050565b6132cd826128ff565b67ffffffffffffffff8111156132e6576132e56125ea565b5b6132f08254612e42565b6132fb828285613237565b600060209050601f83116001811461332e576000841561331c578287015190505b61332685826132a8565b86555061338e565b601f19841661333c86613118565b60005b828110156133645784890151825560018201915060208501945060208101905061333f565b86831015613381578489015161337d601f89168261328a565b8355505b6001600288020188555050505b505050505050565b7f5573657220646f65736e27742045786973740000000000000000000000000000600082015250565b60006133cc601283612d43565b91506133d782613396565b602082019050919050565b600060208201905081810360008301526133fb816133bf565b9050919050565b7f486f75736520646f65736e277420457869737400000000000000000000000000600082015250565b6000613438601383612d43565b915061344382613402565b602082019050919050565b600060208201905081810360008301526134678161342b565b9050919050565b7f4e487b7100000000000000000000000000000000000000000000000000000000600052603260045260246000fd5b60006134a882612715565b91506134b383612715565b92508282039050818111156134cb576134ca612f71565b5b92915050565b60006134dc82612b2e565b91506134e783612b2e565b92508282026134f581612b2e565b915080821461350757613506612f71565b5b5092915050565b7f446f6e74206861766520656e6f75676820706f696e747320746f206275790000600082015250565b6000613544601e83612d43565b915061354f8261350e565b602082019050919050565b6000602082019050818103600083015261357381613537565b9050919050565b600061358582612a43565b915061359083612a43565b9250828203905063ffffffff8111156135ac576135ab612f71565b5b92915050565b7f5573657220646f65736e27742045786973742e00000000000000000000000000600082015250565b60006135e8601383612d43565b91506135f3826135b2565b602082019050919050565b60006020820190508181036000830152613617816135db565b9050919050565b7f4e6f206f6620556e697473206d7573742062652067726561746572207468616e60008201527f20312e0000000000000000000000000000000000000000000000000000000000602082015250565b600061367a602383612d43565b91506136858261361e565b604082019050919050565b600060208201905081810360008301526136a98161366d565b9050919050565b60006136bc8385612dc0565b93506136c9838584612696565b82840190509392505050565b60006136e28284866136b0565b91508190509392505050565b60006136f982612a43565b915061370483612a43565b9250828201905063ffffffff8111156137205761371f612f71565b5b92915050565b7f486f757365206973206e6f742052656769737465726564000000000000000000600082015250565b600061375c601783612d43565b915061376782613726565b602082019050919050565b6000602082019050818103600083015261378b8161374f565b9050919050565b6000819050919050565b6137ad6137a882612715565b613792565b82525050565b60006137bf828461379c565b60208201915081905092915050565b60006137d982612715565b91507fffffffffffffffffffffffffffffffffffffffffffffffffffffffffffffffff820361380b5761380a612f71565b5b600182019050919050565b600081519050919050565b600082825260208201905092915050565b6000819050602082019050919050565b6000604083016000830151848203600086015261385f8282612945565b9150506020830151613874602086018261297e565b508091505092915050565b600061388b8383613842565b905092915050565b6000602082019050919050565b60006138ab82613816565b6138b58185613821565b9350836020820285016138c785613832565b8060005b8581101561390357848403895281516138e4858261387f565b94506138ef83613893565b925060208a019950506001810190506138cb565b50829750879550505050505092915050565b600060608201905061392a6000830186612a53565b818103602083015261393c8185612bb1565b9050818103604083015261395081846138a0565b905094935050505056fea2646970667358221220f2d5486f5f572178ac98e722b0888709b757beb5c835fe1700caf3cc469b0c8264736f6c63430008180033",
  "linkReferences": {},
  "deployedLinkReferences": {}
}