{
  "_format": "hh-sol-artifact-1",
  "contractName": "Marketplace",
  "sourceName": "contracts/MarketPlace.sol",
  "abi": [
    {
      "inputs": [
        {
          "internalType": "contract IUser",
          "name": "_userRegistory",
          "type": "address"
        }
      ],
      "stateMutability": "nonpayable",
      "type": "constructor"
    },
    {
      "anonymous": false,
      "inputs": [
        {
          "indexed": false,
          "internalType": "uint256[]",
          "name": "adIds",
          "type": "uint256[]"
        },
        {
          "indexed": false,
          "internalType": "address[]",
          "name": "consumers",
          "type": "address[]"
        },
        {
          "indexed": false,
          "internalType": "uint256[]",
          "name": "houseAddresses",
          "type": "uint256[]"
        },
        {
          "indexed": false,
          "internalType": "uint256[]",
          "name": "demandUnits",
          "type": "uint256[]"
        },
        {
          "indexed": false,
          "internalType": "uint256[]",
          "name": "arrangedUnits",
          "type": "uint256[]"
        },
        {
          "indexed": false,
          "internalType": "string[]",
          "name": "dates",
          "type": "string[]"
        },
        {
          "indexed": false,
          "internalType": "uint256[]",
          "name": "prices",
          "type": "uint256[]"
        },
        {
          "indexed": false,
          "internalType": "enum Marketplace.AdStatusEnum[]",
          "name": "statuses",
          "type": "uint8[]"
        }
      ],
      "name": "AdsList",
      "type": "event"
    },
    {
      "inputs": [
        {
          "internalType": "uint256",
          "name": "",
          "type": "uint256"
        }
      ],
      "name": "Ads",
      "outputs": [
        {
          "internalType": "uint256",
          "name": "id",
          "type": "uint256"
        },
        {
          "internalType": "address",
          "name": "_consumer",
          "type": "address"
        },
        {
          "internalType": "uint256",
          "name": "houseAddress",
          "type": "uint256"
        },
        {
          "internalType": "uint256",
          "name": "demandUnits",
          "type": "uint256"
        },
        {
          "internalType": "uint256",
          "name": "arrangedUnits",
          "type": "uint256"
        },
        {
          "internalType": "string",
          "name": "date",
          "type": "string"
        },
        {
          "internalType": "uint256",
          "name": "pricePerUnit",
          "type": "uint256"
        },
        {
          "internalType": "enum Marketplace.AdStatusEnum",
          "name": "status",
          "type": "uint8"
        }
      ],
      "stateMutability": "view",
      "type": "function"
    },
    {
      "inputs": [
        {
          "internalType": "uint256",
          "name": "houseId",
          "type": "uint256"
        },
        {
          "internalType": "uint256",
          "name": "demandUnits",
          "type": "uint256"
        },
        {
          "internalType": "uint256",
          "name": "pricePerUnit",
          "type": "uint256"
        },
        {
          "internalType": "string",
          "name": "date",
          "type": "string"
        }
      ],
      "name": "addAd",
      "outputs": [],
      "stateMutability": "nonpayable",
      "type": "function"
    },
    {
      "inputs": [
        {
          "internalType": "uint256",
          "name": "adId",
          "type": "uint256"
        }
      ],
      "name": "cancelAd",
      "outputs": [],
      "stateMutability": "nonpayable",
      "type": "function"
    },
    {
      "inputs": [],
      "name": "emitAllAds",
      "outputs": [],
      "stateMutability": "nonpayable",
      "type": "function"
    },
    {
      "inputs": [],
      "name": "getAllAds",
      "outputs": [
        {
          "components": [
            {
              "internalType": "uint256",
              "name": "id",
              "type": "uint256"
            },
            {
              "internalType": "address",
              "name": "_consumer",
              "type": "address"
            },
            {
              "internalType": "uint256",
              "name": "houseAddress",
              "type": "uint256"
            },
            {
              "internalType": "uint256",
              "name": "demandUnits",
              "type": "uint256"
            },
            {
              "internalType": "uint256",
              "name": "arrangedUnits",
              "type": "uint256"
            },
            {
              "internalType": "string",
              "name": "date",
              "type": "string"
            },
            {
              "internalType": "uint256",
              "name": "pricePerUnit",
              "type": "uint256"
            },
            {
              "internalType": "enum Marketplace.AdStatusEnum",
              "name": "status",
              "type": "uint8"
            }
          ],
          "internalType": "struct Marketplace.Ad[]",
          "name": "",
          "type": "tuple[]"
        }
      ],
      "stateMutability": "view",
      "type": "function"
    },
    {
      "inputs": [
        {
          "internalType": "uint256",
          "name": "adId",
          "type": "uint256"
        },
        {
          "internalType": "uint256",
          "name": "numOfUnitPurchase",
          "type": "uint256"
        },
        {
          "internalType": "uint256",
          "name": "transferAtHouseAddr",
          "type": "uint256"
        },
        {
          "internalType": "uint256",
          "name": "couponNum",
          "type": "uint256"
        }
      ],
      "name": "order",
      "outputs": [],
      "stateMutability": "nonpayable",
      "type": "function"
    },
    {
      "inputs": [],
      "name": "owner",
      "outputs": [
        {
          "internalType": "address",
          "name": "",
          "type": "address"
        }
      ],
      "stateMutability": "view",
      "type": "function"
    },
    {
      "inputs": [],
      "name": "userRegistery",
      "outputs": [
        {
          "internalType": "contract IUser",
          "name": "",
          "type": "address"
        }
      ],
      "stateMutability": "view",
      "type": "function"
    }
  ],
  "bytecode": "0x608060405260016004553480156200001657600080fd5b50604051620029103803806200291083398181016040528101906200003c919062000102565b80600360006101000a81548173ffffffffffffffffffffffffffffffffffffffff021916908373ffffffffffffffffffffffffffffffffffffffff1602179055505062000134565b600080fd5b600073ffffffffffffffffffffffffffffffffffffffff82169050919050565b6000620000b68262000089565b9050919050565b6000620000ca82620000a9565b9050919050565b620000dc81620000bd565b8114620000e857600080fd5b50565b600081519050620000fc81620000d1565b92915050565b6000602082840312156200011b576200011a62000084565b5b60006200012b84828501620000eb565b91505092915050565b6127cc80620001446000396000f3fe608060405234801561001057600080fd5b50600436106100885760003560e01c806393a425e61161005b57806393a425e6146100ed578063947faaca14610109578063b79f442314610127578063c7e79d801461014557610088565b80633f11710b1461008d578063494761bb146100a957806355d11f55146100b35780638da5cb5b146100cf575b600080fd5b6100a760048036038101906100a29190611540565b61017c565b005b6100b1610301565b005b6100cd60048036038101906100c891906116b3565b61077f565b005b6100d7610a91565b6040516100e49190611777565b60405180910390f35b61010760048036038101906101029190611792565b610ab7565b005b61011161113a565b60405161011e9190611858565b60405180910390f35b61012f611160565b60405161013c9190611af9565b60405180910390f35b61015f600480360381019061015a9190611540565b61138c565b604051610173989796959493929190611b83565b60405180910390f35b3373ffffffffffffffffffffffffffffffffffffffff166001600083815260200190815260200160002060010160009054906101000a900473ffffffffffffffffffffffffffffffffffffffff1673ffffffffffffffffffffffffffffffffffffffff1614610220576040517f08c379a000000000000000000000000000000000000000000000000000000000815260040161021790611c7a565b60405180910390fd5b6000600160008381526020019081526020016000209050600360009054906101000a900473ffffffffffffffffffffffffffffffffffffffff1673ffffffffffffffffffffffffffffffffffffffff166321dac96333836002015484600301546040518463ffffffff1660e01b815260040161029e93929190611c9a565b600060405180830381600087803b1580156102b857600080fd5b505af11580156102cc573d6000803e3d6000fd5b5050505060008160070160006101000a81548160ff021916908360028111156102f8576102f761193c565b5b02179055505050565b600061030b611160565b90506000815167ffffffffffffffff81111561032a57610329611588565b5b6040519080825280602002602001820160405280156103585781602001602082028036833780820191505090505b5090506000825167ffffffffffffffff81111561037857610377611588565b5b6040519080825280602002602001820160405280156103a65781602001602082028036833780820191505090505b5090506000835167ffffffffffffffff8111156103c6576103c5611588565b5b6040519080825280602002602001820160405280156103f45781602001602082028036833780820191505090505b5090506000845167ffffffffffffffff81111561041457610413611588565b5b6040519080825280602002602001820160405280156104425781602001602082028036833780820191505090505b5090506000855167ffffffffffffffff81111561046257610461611588565b5b6040519080825280602002602001820160405280156104905781602001602082028036833780820191505090505b5090506000865167ffffffffffffffff8111156104b0576104af611588565b5b6040519080825280602002602001820160405280156104e357816020015b60608152602001906001900390816104ce5790505b5090506000875167ffffffffffffffff81111561050357610502611588565b5b6040519080825280602002602001820160405280156105315781602001602082028036833780820191505090505b5090506000885167ffffffffffffffff81111561055157610550611588565b5b60405190808252806020026020018201604052801561057f5781602001602082028036833780820191505090505b50905060005b895181101561072e5760008a82815181106105a3576105a2611cd1565b5b6020026020010151905080600001518a83815181106105c5576105c4611cd1565b5b60200260200101818152505080602001518983815181106105e9576105e8611cd1565b5b602002602001019073ffffffffffffffffffffffffffffffffffffffff16908173ffffffffffffffffffffffffffffffffffffffff1681525050806040015188838151811061063b5761063a611cd1565b5b602002602001018181525050806060015187838151811061065f5761065e611cd1565b5b602002602001018181525050806080015186838151811061068357610682611cd1565b5b6020026020010181815250508060a001518583815181106106a7576106a6611cd1565b5b60200260200101819052508060c001518483815181106106ca576106c9611cd1565b5b6020026020010181815250508060e001518383815181106106ee576106ed611cd1565b5b602002602001019060028111156107085761070761193c565b5b9081600281111561071c5761071b61193c565b5b81525050508080600101915050610585565b507f1d5b1a821759846abcee9a97ae689ac444401fe227887c680fd8044b847d8e04888888888888888860405161076c989796959493929190611fcf565b60405180910390a1505050505050505050565b600360009054906101000a900473ffffffffffffffffffffffffffffffffffffffff1673ffffffffffffffffffffffffffffffffffffffff1663f3c95c60336040518263ffffffff1660e01b81526004016107da9190611777565b602060405180830381865afa1580156107f7573d6000803e3d6000fd5b505050506040513d601f19601f8201168201806040525081019061081b91906120bd565b61085a576040517f08c379a00000000000000000000000000000000000000000000000000000000081526004016108519061215c565b60405180910390fd5b600360009054906101000a900473ffffffffffffffffffffffffffffffffffffffff1673ffffffffffffffffffffffffffffffffffffffff1663925893c433866040518363ffffffff1660e01b81526004016108b792919061217c565b602060405180830381865afa1580156108d4573d6000803e3d6000fd5b505050506040513d601f19601f820116820180604052508101906108f891906120bd565b610937576040517f08c379a000000000000000000000000000000000000000000000000000000000815260040161092e906121f1565b60405180910390fd5b60405180610100016040528060045481526020013373ffffffffffffffffffffffffffffffffffffffff168152602001858152602001848152602001600081526020018281526020018381526020016002808111156109995761099861193c565b5b8152506001600060045481526020019081526020016000206000820151816000015560208201518160010160006101000a81548173ffffffffffffffffffffffffffffffffffffffff021916908373ffffffffffffffffffffffffffffffffffffffff16021790555060408201518160020155606082015181600301556080820151816004015560a0820151816005019081610a359190612413565b5060c0820151816006015560e08201518160070160006101000a81548160ff02191690836002811115610a6b57610a6a61193c565b5b021790555090505060046000815480929190610a8690612514565b919050555050505050565b600260009054906101000a900473ffffffffffffffffffffffffffffffffffffffff1681565b600360009054906101000a900473ffffffffffffffffffffffffffffffffffffffff1673ffffffffffffffffffffffffffffffffffffffff1663f3c95c60336040518263ffffffff1660e01b8152600401610b129190611777565b602060405180830381865afa158015610b2f573d6000803e3d6000fd5b505050506040513d601f19601f82011682018060405250810190610b5391906120bd565b610b92576040517f08c379a0000000000000000000000000000000000000000000000000000000008152600401610b899061215c565b60405180910390fd5b600360009054906101000a900473ffffffffffffffffffffffffffffffffffffffff1673ffffffffffffffffffffffffffffffffffffffff1663925893c433846040518363ffffffff1660e01b8152600401610bef92919061217c565b602060405180830381865afa158015610c0c573d6000803e3d6000fd5b505050506040513d601f19601f82011682018060405250810190610c3091906120bd565b610c6f576040517f08c379a0000000000000000000000000000000000000000000000000000000008152600401610c66906121f1565b60405180910390fd5b6000600160008681526020019081526020016000206000015403610cc8576040517f08c379a0000000000000000000000000000000000000000000000000000000008152600401610cbf906125a8565b60405180910390fd5b60006002811115610cdc57610cdb61193c565b5b6001600086815260200190815260200160002060070160009054906101000a900460ff166002811115610d1257610d1161193c565b5b141580610d67575060016002811115610d2e57610d2d61193c565b5b6001600086815260200190815260200160002060070160009054906101000a900460ff166002811115610d6457610d6361193c565b5b14155b610da6576040517f08c379a0000000000000000000000000000000000000000000000000000000008152600401610d9d906125a8565b60405180910390fd5b8260016000868152602001908152602001600020600401546001600087815260200190815260200160002060030154610ddf91906125c8565b1015610e20576040517f08c379a0000000000000000000000000000000000000000000000000000000008152600401610e179061266e565b60405180910390fd5b60006001600086815260200190815260200160002090506000600360009054906101000a900473ffffffffffffffffffffffffffffffffffffffff1673ffffffffffffffffffffffffffffffffffffffff1663cdeb485c33856040518363ffffffff1660e01b8152600401610e9692919061217c565b602060405180830381865afa158015610eb3573d6000803e3d6000fd5b505050506040513d601f19601f82011682018060405250810190610ed791906120bd565b610f16576040517f08c379a0000000000000000000000000000000000000000000000000000000008152600401610f0d90612700565b60405180910390fd5b600360009054906101000a900473ffffffffffffffffffffffffffffffffffffffff1673ffffffffffffffffffffffffffffffffffffffff166380c912aa33856040518363ffffffff1660e01b8152600401610f7392919061217c565b602060405180830381865afa158015610f90573d6000803e3d6000fd5b505050506040513d601f19601f82011682018060405250810190610fb49190612735565b905084826004016000828254610fca9190612762565b925050819055506040518060c0016040528060065481526020018360010160009054906101000a900473ffffffffffffffffffffffffffffffffffffffff1673ffffffffffffffffffffffffffffffffffffffff1681526020013373ffffffffffffffffffffffffffffffffffffffff16815260200182815260200186815260200185815250600560006006600081548092919061106790612514565b9190505581526020019081526020016000206000820151816000015560208201518160010160006101000a81548173ffffffffffffffffffffffffffffffffffffffff021916908373ffffffffffffffffffffffffffffffffffffffff16021790555060408201518160020160006101000a81548173ffffffffffffffffffffffffffffffffffffffff021916908373ffffffffffffffffffffffffffffffffffffffff160217905550606082015181600301556080820151816004015560a08201518160050155905050505050505050565b600360009054906101000a900473ffffffffffffffffffffffffffffffffffffffff1681565b60606000600160045461117391906125c8565b67ffffffffffffffff81111561118c5761118b611588565b5b6040519080825280602002602001820160405280156111c557816020015b6111b2611489565b8152602001906001900390816111aa5790505b5090506000600190505b600454811015611384576001600082815260200190815260200160002060405180610100016040529081600082015481526020016001820160009054906101000a900473ffffffffffffffffffffffffffffffffffffffff1673ffffffffffffffffffffffffffffffffffffffff1673ffffffffffffffffffffffffffffffffffffffff16815260200160028201548152602001600382015481526020016004820154815260200160058201805461128690612240565b80601f01602080910402602001604051908101604052809291908181526020018280546112b290612240565b80156112ff5780601f106112d4576101008083540402835291602001916112ff565b820191906000526020600020905b8154815290600101906020018083116112e257829003601f168201915b50505050508152602001600682015481526020016007820160009054906101000a900460ff1660028111156113375761133661193c565b5b60028111156113495761134861193c565b5b815250508260018361135b91906125c8565b8151811061136c5761136b611cd1565b5b602002602001018190525080806001019150506111cf565b508091505090565b60016020528060005260406000206000915090508060000154908060010160009054906101000a900473ffffffffffffffffffffffffffffffffffffffff16908060020154908060030154908060040154908060050180546113ed90612240565b80601f016020809104026020016040519081016040528092919081815260200182805461141990612240565b80156114665780601f1061143b57610100808354040283529160200191611466565b820191906000526020600020905b81548152906001019060200180831161144957829003601f168201915b5050505050908060060154908060070160009054906101000a900460ff16905088565b60405180610100016040528060008152602001600073ffffffffffffffffffffffffffffffffffffffff1681526020016000815260200160008152602001600081526020016060815260200160008152602001600060028111156114f0576114ef61193c565b5b81525090565b6000604051905090565b600080fd5b600080fd5b6000819050919050565b61151d8161150a565b811461152857600080fd5b50565b60008135905061153a81611514565b92915050565b60006020828403121561155657611555611500565b5b60006115648482850161152b565b91505092915050565b600080fd5b600080fd5b6000601f19601f8301169050919050565b7f4e487b7100000000000000000000000000000000000000000000000000000000600052604160045260246000fd5b6115c082611577565b810181811067ffffffffffffffff821117156115df576115de611588565b5b80604052505050565b60006115f26114f6565b90506115fe82826115b7565b919050565b600067ffffffffffffffff82111561161e5761161d611588565b5b61162782611577565b9050602081019050919050565b82818337600083830152505050565b600061165661165184611603565b6115e8565b90508281526020810184848401111561167257611671611572565b5b61167d848285611634565b509392505050565b600082601f83011261169a5761169961156d565b5b81356116aa848260208601611643565b91505092915050565b600080600080608085870312156116cd576116cc611500565b5b60006116db8782880161152b565b94505060206116ec8782880161152b565b93505060406116fd8782880161152b565b925050606085013567ffffffffffffffff81111561171e5761171d611505565b5b61172a87828801611685565b91505092959194509250565b600073ffffffffffffffffffffffffffffffffffffffff82169050919050565b600061176182611736565b9050919050565b61177181611756565b82525050565b600060208201905061178c6000830184611768565b92915050565b600080600080608085870312156117ac576117ab611500565b5b60006117ba8782880161152b565b94505060206117cb8782880161152b565b93505060406117dc8782880161152b565b92505060606117ed8782880161152b565b91505092959194509250565b6000819050919050565b600061181e61181961181484611736565b6117f9565b611736565b9050919050565b600061183082611803565b9050919050565b600061184282611825565b9050919050565b61185281611837565b82525050565b600060208201905061186d6000830184611849565b92915050565b600081519050919050565b600082825260208201905092915050565b6000819050602082019050919050565b6118a88161150a565b82525050565b6118b781611756565b82525050565b600081519050919050565b600082825260208201905092915050565b60005b838110156118f75780820151818401526020810190506118dc565b60008484015250505050565b600061190e826118bd565b61191881856118c8565b93506119288185602086016118d9565b61193181611577565b840191505092915050565b7f4e487b7100000000000000000000000000000000000000000000000000000000600052602160045260246000fd5b6003811061197c5761197b61193c565b5b50565b600081905061198d8261196b565b919050565b600061199d8261197f565b9050919050565b6119ad81611992565b82525050565b6000610100830160008301516119cc600086018261189f565b5060208301516119df60208601826118ae565b5060408301516119f2604086018261189f565b506060830151611a05606086018261189f565b506080830151611a18608086018261189f565b5060a083015184820360a0860152611a308282611903565b91505060c0830151611a4560c086018261189f565b5060e0830151611a5860e08601826119a4565b508091505092915050565b6000611a6f83836119b3565b905092915050565b6000602082019050919050565b6000611a8f82611873565b611a99818561187e565b935083602082028501611aab8561188f565b8060005b85811015611ae75784840389528151611ac88582611a63565b9450611ad383611a77565b925060208a01995050600181019050611aaf565b50829750879550505050505092915050565b60006020820190508181036000830152611b138184611a84565b905092915050565b611b248161150a565b82525050565b600082825260208201905092915050565b6000611b46826118bd565b611b508185611b2a565b9350611b608185602086016118d9565b611b6981611577565b840191505092915050565b611b7d81611992565b82525050565b600061010082019050611b99600083018b611b1b565b611ba6602083018a611768565b611bb36040830189611b1b565b611bc06060830188611b1b565b611bcd6080830187611b1b565b81810360a0830152611bdf8186611b3b565b9050611bee60c0830185611b1b565b611bfb60e0830184611b74565b9998505050505050505050565b7f416420646f65736e2774206c696e6b20776974682070726f766964656420757360008201527f6572000000000000000000000000000000000000000000000000000000000000602082015250565b6000611c64602283611b2a565b9150611c6f82611c08565b604082019050919050565b60006020820190508181036000830152611c9381611c57565b9050919050565b6000606082019050611caf6000830186611768565b611cbc6020830185611b1b565b611cc96040830184611b1b565b949350505050565b7f4e487b7100000000000000000000000000000000000000000000000000000000600052603260045260246000fd5b600081519050919050565b600082825260208201905092915050565b6000819050602082019050919050565b6000611d38838361189f565b60208301905092915050565b6000602082019050919050565b6000611d5c82611d00565b611d668185611d0b565b9350611d7183611d1c565b8060005b83811015611da2578151611d898882611d2c565b9750611d9483611d44565b925050600181019050611d75565b5085935050505092915050565b600081519050919050565b600082825260208201905092915050565b6000819050602082019050919050565b6000611de783836118ae565b60208301905092915050565b6000602082019050919050565b6000611e0b82611daf565b611e158185611dba565b9350611e2083611dcb565b8060005b83811015611e51578151611e388882611ddb565b9750611e4383611df3565b925050600181019050611e24565b5085935050505092915050565b600081519050919050565b600082825260208201905092915050565b6000819050602082019050919050565b6000611e968383611903565b905092915050565b6000602082019050919050565b6000611eb682611e5e565b611ec08185611e69565b935083602082028501611ed285611e7a565b8060005b85811015611f0e5784840389528151611eef8582611e8a565b9450611efa83611e9e565b925060208a01995050600181019050611ed6565b50829750879550505050505092915050565b600081519050919050565b600082825260208201905092915050565b6000819050602082019050919050565b6000611f5883836119a4565b60208301905092915050565b6000602082019050919050565b6000611f7c82611f20565b611f868185611f2b565b9350611f9183611f3c565b8060005b83811015611fc2578151611fa98882611f4c565b9750611fb483611f64565b925050600181019050611f95565b5085935050505092915050565b6000610100820190508181036000830152611fea818b611d51565b90508181036020830152611ffe818a611e00565b905081810360408301526120128189611d51565b905081810360608301526120268188611d51565b9050818103608083015261203a8187611d51565b905081810360a083015261204e8186611eab565b905081810360c08301526120628185611d51565b905081810360e08301526120768184611f71565b90509998505050505050505050565b60008115159050919050565b61209a81612085565b81146120a557600080fd5b50565b6000815190506120b781612091565b92915050565b6000602082840312156120d3576120d2611500565b5b60006120e1848285016120a8565b91505092915050565b7f5573657220686173206e6f742072656769737465726564207965742e2052656760008201527f697374657220746865206163636f756e74000000000000000000000000000000602082015250565b6000612146603183611b2a565b9150612151826120ea565b604082019050919050565b6000602082019050818103600083015261217581612139565b9050919050565b60006040820190506121916000830185611768565b61219e6020830184611b1b565b9392505050565b7f486f757365206973206e6f7420726567697374657265642e0000000000000000600082015250565b60006121db601883611b2a565b91506121e6826121a5565b602082019050919050565b6000602082019050818103600083015261220a816121ce565b9050919050565b7f4e487b7100000000000000000000000000000000000000000000000000000000600052602260045260246000fd5b6000600282049050600182168061225857607f821691505b60208210810361226b5761226a612211565b5b50919050565b60008190508160005260206000209050919050565b60006020601f8301049050919050565b600082821b905092915050565b6000600883026122d37fffffffffffffffffffffffffffffffffffffffffffffffffffffffffffffffff82612296565b6122dd8683612296565b95508019841693508086168417925050509392505050565b600061231061230b6123068461150a565b6117f9565b61150a565b9050919050565b6000819050919050565b61232a836122f5565b61233e61233682612317565b8484546122a3565b825550505050565b600090565b612353612346565b61235e818484612321565b505050565b5b818110156123825761237760008261234b565b600181019050612364565b5050565b601f8211156123c75761239881612271565b6123a184612286565b810160208510156123b0578190505b6123c46123bc85612286565b830182612363565b50505b505050565b600082821c905092915050565b60006123ea600019846008026123cc565b1980831691505092915050565b600061240383836123d9565b9150826002028217905092915050565b61241c826118bd565b67ffffffffffffffff81111561243557612434611588565b5b61243f8254612240565b61244a828285612386565b600060209050601f83116001811461247d576000841561246b578287015190505b61247585826123f7565b8655506124dd565b601f19841661248b86612271565b60005b828110156124b35784890151825560018201915060208501945060208101905061248e565b868310156124d057848901516124cc601f8916826123d9565b8355505b6001600288020188555050505b505050505050565b7f4e487b7100000000000000000000000000000000000000000000000000000000600052601160045260246000fd5b600061251f8261150a565b91507fffffffffffffffffffffffffffffffffffffffffffffffffffffffffffffffff8203612551576125506124e5565b5b600182019050919050565b7f416420446f65736e277420457869737400000000000000000000000000000000600082015250565b6000612592601083611b2a565b915061259d8261255c565b602082019050919050565b600060208201905081810360008301526125c181612585565b9050919050565b60006125d38261150a565b91506125de8361150a565b92508282039050818111156125f6576125f56124e5565b5b92915050565b7f4e756d626572206f6620756e69742077616e7420746f2070757263686173652060008201527f6578636565642066726f6d20746865204164206c696d69740000000000000000602082015250565b6000612658603883611b2a565b9150612663826125fc565b604082019050919050565b600060208201905081810360008301526126878161264b565b9050919050565b7f446f65736e2774204861766520436f75706f6e20746f20617661696c2064697360008201527f636f756e74000000000000000000000000000000000000000000000000000000602082015250565b60006126ea602583611b2a565b91506126f58261268e565b604082019050919050565b60006020820190508181036000830152612719816126dd565b9050919050565b60008151905061272f81611514565b92915050565b60006020828403121561274b5761274a611500565b5b600061275984828501612720565b91505092915050565b600061276d8261150a565b91506127788361150a565b92508282019050808211156127905761278f6124e5565b5b9291505056fea2646970667358221220fcfb6ee34b40fd09cdbbe960fa367cd66038bcd375f0c7dcf5f1e443198fdee164736f6c63430008180033",
  "linkReferences": {},
  "deployedLinkReferences": {}
}