{
  "_format": "hh-sol-artifact-1",
  "contractName": "Marketplace",
  "sourceName": "contracts/MarketPlace.sol",
  "abi": [
    {
      "inputs": [
        {
          "internalType": "contract IUser",
          "name": "_userRegistory",
          "type": "address"
        }
      ],
      "stateMutability": "nonpayable",
      "type": "constructor"
    },
    {
      "inputs": [
        {
          "internalType": "uint256",
          "name": "",
          "type": "uint256"
        }
      ],
      "name": "Ads",
      "outputs": [
        {
          "internalType": "uint256",
          "name": "id",
          "type": "uint256"
        },
        {
          "internalType": "address",
          "name": "_consumer",
          "type": "address"
        },
        {
          "internalType": "string",
          "name": "houseAddress",
          "type": "string"
        },
        {
          "internalType": "uint256",
          "name": "demandUnits",
          "type": "uint256"
        },
        {
          "internalType": "uint256",
          "name": "arrangedUnits",
          "type": "uint256"
        },
        {
          "internalType": "uint256",
          "name": "pricePerUnit",
          "type": "uint256"
        },
        {
          "internalType": "enum Marketplace.AdStatusEnum",
          "name": "status",
          "type": "uint8"
        }
      ],
      "stateMutability": "view",
      "type": "function"
    },
    {
      "inputs": [
        {
          "internalType": "string",
          "name": "houseAddress",
          "type": "string"
        },
        {
          "internalType": "uint256",
          "name": "demandUnits",
          "type": "uint256"
        },
        {
          "internalType": "uint256",
          "name": "pricePerUnit",
          "type": "uint256"
        }
      ],
      "name": "addAd",
      "outputs": [],
      "stateMutability": "nonpayable",
      "type": "function"
    },
    {
      "inputs": [
        {
          "internalType": "uint256",
          "name": "adId",
          "type": "uint256"
        }
      ],
      "name": "cancelAd",
      "outputs": [],
      "stateMutability": "nonpayable",
      "type": "function"
    },
    {
      "inputs": [
        {
          "internalType": "uint256",
          "name": "adId",
          "type": "uint256"
        },
        {
          "internalType": "uint256",
          "name": "numOfUnitPurchase",
          "type": "uint256"
        },
        {
          "internalType": "string",
          "name": "transferAtHouseAddr",
          "type": "string"
        },
        {
          "internalType": "uint256",
          "name": "couponNum",
          "type": "uint256"
        }
      ],
      "name": "order",
      "outputs": [],
      "stateMutability": "nonpayable",
      "type": "function"
    },
    {
      "inputs": [],
      "name": "owner",
      "outputs": [
        {
          "internalType": "address",
          "name": "",
          "type": "address"
        }
      ],
      "stateMutability": "view",
      "type": "function"
    },
    {
      "inputs": [],
      "name": "userRegistery",
      "outputs": [
        {
          "internalType": "contract IUser",
          "name": "",
          "type": "address"
        }
      ],
      "stateMutability": "view",
      "type": "function"
    }
  ],
  "bytecode": "0x608060405260016004553480156200001657600080fd5b5060405162001d9e38038062001d9e83398181016040528101906200003c919062000143565b33600260006101000a81548173ffffffffffffffffffffffffffffffffffffffff021916908373ffffffffffffffffffffffffffffffffffffffff16021790555080600360006101000a81548173ffffffffffffffffffffffffffffffffffffffff021916908373ffffffffffffffffffffffffffffffffffffffff1602179055505062000175565b600080fd5b600073ffffffffffffffffffffffffffffffffffffffff82169050919050565b6000620000f782620000ca565b9050919050565b60006200010b82620000ea565b9050919050565b6200011d81620000fe565b81146200012957600080fd5b50565b6000815190506200013d8162000112565b92915050565b6000602082840312156200015c576200015b620000c5565b5b60006200016c848285016200012c565b91505092915050565b611c1980620001856000396000f3fe608060405234801561001057600080fd5b50600436106100625760003560e01c80633f11710b1461006757806375e3ed1114610083578063824dac4a1461009f5780638da5cb5b146100bb578063947faaca146100d9578063c7e79d80146100f7575b600080fd5b610081600480360381019061007c9190610e5a565b61012d565b005b61009d60048036038101906100989190610fcd565b6102b1565b005b6100b960048036038101906100b4919061103c565b61063e565b005b6100c3610ccd565b6040516100d09190611100565b60405180910390f35b6100e1610cf3565b6040516100ee919061117a565b60405180910390f35b610111600480360381019061010c9190610e5a565b610d19565b604051610124979695949392919061129a565b60405180910390f35b3373ffffffffffffffffffffffffffffffffffffffff166001600083815260200190815260200160002060010160009054906101000a900473ffffffffffffffffffffffffffffffffffffffff1673ffffffffffffffffffffffffffffffffffffffff16146101d1576040517f08c379a00000000000000000000000000000000000000000000000000000000081526004016101c890611382565b60405180910390fd5b6000600160008381526020019081526020016000209050600360009054906101000a900473ffffffffffffffffffffffffffffffffffffffff1673ffffffffffffffffffffffffffffffffffffffff16634560fac1338360020184600301546040518463ffffffff1660e01b815260040161024e9392919061149b565b600060405180830381600087803b15801561026857600080fd5b505af115801561027c573d6000803e3d6000fd5b5050505060008160060160006101000a81548160ff021916908360028111156102a8576102a7611223565b5b02179055505050565b600360009054906101000a900473ffffffffffffffffffffffffffffffffffffffff1673ffffffffffffffffffffffffffffffffffffffff1663f3c95c60336040518263ffffffff1660e01b815260040161030c9190611100565b602060405180830381865afa158015610329573d6000803e3d6000fd5b505050506040513d601f19601f8201168201806040525081019061034d9190611511565b61038c576040517f08c379a0000000000000000000000000000000000000000000000000000000008152600401610383906115b0565b60405180910390fd5b600360009054906101000a900473ffffffffffffffffffffffffffffffffffffffff1673ffffffffffffffffffffffffffffffffffffffff1663c49b6d6e33856040518363ffffffff1660e01b81526004016103e99291906115d0565b602060405180830381865afa158015610406573d6000803e3d6000fd5b505050506040513d601f19601f8201168201806040525081019061042a9190611511565b610469576040517f08c379a00000000000000000000000000000000000000000000000000000000081526004016104609061164c565b60405180910390fd5b600360009054906101000a900473ffffffffffffffffffffffffffffffffffffffff1673ffffffffffffffffffffffffffffffffffffffff1663c93a83813385856040518463ffffffff1660e01b81526004016104c89392919061166c565b600060405180830381600087803b1580156104e257600080fd5b505af11580156104f6573d6000803e3d6000fd5b505050506040518060e0016040528060046000815480929190610518906116d9565b9190505581526020013373ffffffffffffffffffffffffffffffffffffffff1681526020018481526020018381526020016000815260200182815260200160028081111561056957610568611223565b5b8152506001600060045481526020019081526020016000206000820151816000015560208201518160010160006101000a81548173ffffffffffffffffffffffffffffffffffffffff021916908373ffffffffffffffffffffffffffffffffffffffff16021790555060408201518160020190816105e791906118ae565b50606082015181600301556080820151816004015560a0820151816005015560c08201518160060160006101000a81548160ff0219169083600281111561063157610630611223565b5b0217905550905050505050565b600360009054906101000a900473ffffffffffffffffffffffffffffffffffffffff1673ffffffffffffffffffffffffffffffffffffffff1663f3c95c60336040518263ffffffff1660e01b81526004016106999190611100565b602060405180830381865afa1580156106b6573d6000803e3d6000fd5b505050506040513d601f19601f820116820180604052508101906106da9190611511565b610719576040517f08c379a0000000000000000000000000000000000000000000000000000000008152600401610710906115b0565b60405180910390fd5b600360009054906101000a900473ffffffffffffffffffffffffffffffffffffffff1673ffffffffffffffffffffffffffffffffffffffff1663c49b6d6e33846040518363ffffffff1660e01b81526004016107769291906115d0565b602060405180830381865afa158015610793573d6000803e3d6000fd5b505050506040513d601f19601f820116820180604052508101906107b79190611511565b6107f6576040517f08c379a00000000000000000000000000000000000000000000000000000000081526004016107ed9061164c565b60405180910390fd5b600060016000868152602001908152602001600020600001540361084f576040517f08c379a0000000000000000000000000000000000000000000000000000000008152600401610846906119cc565b60405180910390fd5b6000600281111561086357610862611223565b5b6001600086815260200190815260200160002060060160009054906101000a900460ff16600281111561089957610898611223565b5b1415806108ee5750600160028111156108b5576108b4611223565b5b6001600086815260200190815260200160002060060160009054906101000a900460ff1660028111156108eb576108ea611223565b5b14155b61092d576040517f08c379a0000000000000000000000000000000000000000000000000000000008152600401610924906119cc565b60405180910390fd5b826001600086815260200190815260200160002060040154600160008781526020019081526020016000206003015461096691906119ec565b10156109a7576040517f08c379a000000000000000000000000000000000000000000000000000000000815260040161099e90611a92565b60405180910390fd5b60006001600086815260200190815260200160002090506000600360009054906101000a900473ffffffffffffffffffffffffffffffffffffffff1673ffffffffffffffffffffffffffffffffffffffff1663cdeb485c33856040518363ffffffff1660e01b8152600401610a1d929190611ab2565b602060405180830381865afa158015610a3a573d6000803e3d6000fd5b505050506040513d601f19601f82011682018060405250810190610a5e9190611511565b610a9d576040517f08c379a0000000000000000000000000000000000000000000000000000000008152600401610a9490611b4d565b60405180910390fd5b600360009054906101000a900473ffffffffffffffffffffffffffffffffffffffff1673ffffffffffffffffffffffffffffffffffffffff166380c912aa33856040518363ffffffff1660e01b8152600401610afa929190611ab2565b602060405180830381865afa158015610b17573d6000803e3d6000fd5b505050506040513d601f19601f82011682018060405250810190610b3b9190611b82565b905084826004016000828254610b519190611baf565b925050819055506040518060c0016040528060065481526020018360010160009054906101000a900473ffffffffffffffffffffffffffffffffffffffff1673ffffffffffffffffffffffffffffffffffffffff1681526020013373ffffffffffffffffffffffffffffffffffffffff168152602001828152602001868152602001858152506005600060066000815480929190610bee906116d9565b9190505581526020019081526020016000206000820151816000015560208201518160010160006101000a81548173ffffffffffffffffffffffffffffffffffffffff021916908373ffffffffffffffffffffffffffffffffffffffff16021790555060408201518160020160006101000a81548173ffffffffffffffffffffffffffffffffffffffff021916908373ffffffffffffffffffffffffffffffffffffffff160217905550606082015181600301556080820151816004015560a0820151816005019081610cc191906118ae565b50905050505050505050565b600260009054906101000a900473ffffffffffffffffffffffffffffffffffffffff1681565b600360009054906101000a900473ffffffffffffffffffffffffffffffffffffffff1681565b60016020528060005260406000206000915090508060000154908060010160009054906101000a900473ffffffffffffffffffffffffffffffffffffffff1690806002018054610d68906113d1565b80601f0160208091040260200160405190810160405280929190818152602001828054610d94906113d1565b8015610de15780601f10610db657610100808354040283529160200191610de1565b820191906000526020600020905b815481529060010190602001808311610dc457829003601f168201915b5050505050908060030154908060040154908060050154908060060160009054906101000a900460ff16905087565b6000604051905090565b600080fd5b600080fd5b6000819050919050565b610e3781610e24565b8114610e4257600080fd5b50565b600081359050610e5481610e2e565b92915050565b600060208284031215610e7057610e6f610e1a565b5b6000610e7e84828501610e45565b91505092915050565b600080fd5b600080fd5b6000601f19601f8301169050919050565b7f4e487b7100000000000000000000000000000000000000000000000000000000600052604160045260246000fd5b610eda82610e91565b810181811067ffffffffffffffff82111715610ef957610ef8610ea2565b5b80604052505050565b6000610f0c610e10565b9050610f188282610ed1565b919050565b600067ffffffffffffffff821115610f3857610f37610ea2565b5b610f4182610e91565b9050602081019050919050565b82818337600083830152505050565b6000610f70610f6b84610f1d565b610f02565b905082815260208101848484011115610f8c57610f8b610e8c565b5b610f97848285610f4e565b509392505050565b600082601f830112610fb457610fb3610e87565b5b8135610fc4848260208601610f5d565b91505092915050565b600080600060608486031215610fe657610fe5610e1a565b5b600084013567ffffffffffffffff81111561100457611003610e1f565b5b61101086828701610f9f565b935050602061102186828701610e45565b925050604061103286828701610e45565b9150509250925092565b6000806000806080858703121561105657611055610e1a565b5b600061106487828801610e45565b945050602061107587828801610e45565b935050604085013567ffffffffffffffff81111561109657611095610e1f565b5b6110a287828801610f9f565b92505060606110b387828801610e45565b91505092959194509250565b600073ffffffffffffffffffffffffffffffffffffffff82169050919050565b60006110ea826110bf565b9050919050565b6110fa816110df565b82525050565b600060208201905061111560008301846110f1565b92915050565b6000819050919050565b600061114061113b611136846110bf565b61111b565b6110bf565b9050919050565b600061115282611125565b9050919050565b600061116482611147565b9050919050565b61117481611159565b82525050565b600060208201905061118f600083018461116b565b92915050565b61119e81610e24565b82525050565b600081519050919050565b600082825260208201905092915050565b60005b838110156111de5780820151818401526020810190506111c3565b60008484015250505050565b60006111f5826111a4565b6111ff81856111af565b935061120f8185602086016111c0565b61121881610e91565b840191505092915050565b7f4e487b7100000000000000000000000000000000000000000000000000000000600052602160045260246000fd5b6003811061126357611262611223565b5b50565b600081905061127482611252565b919050565b600061128482611266565b9050919050565b61129481611279565b82525050565b600060e0820190506112af600083018a611195565b6112bc60208301896110f1565b81810360408301526112ce81886111ea565b90506112dd6060830187611195565b6112ea6080830186611195565b6112f760a0830185611195565b61130460c083018461128b565b98975050505050505050565b7f416420646f65736e2774206c696e6b20776974682070726f766964656420757360008201527f6572000000000000000000000000000000000000000000000000000000000000602082015250565b600061136c6022836111af565b915061137782611310565b604082019050919050565b6000602082019050818103600083015261139b8161135f565b9050919050565b7f4e487b7100000000000000000000000000000000000000000000000000000000600052602260045260246000fd5b600060028204905060018216806113e957607f821691505b6020821081036113fc576113fb6113a2565b5b50919050565b60008190508160005260206000209050919050565b60008154611424816113d1565b61142e81866111af565b94506001821660008114611449576001811461145f57611492565b60ff198316865281151560200286019350611492565b61146885611402565b60005b8381101561148a5781548189015260018201915060208101905061146b565b808801955050505b50505092915050565b60006060820190506114b060008301866110f1565b81810360208301526114c28185611417565b90506114d16040830184611195565b949350505050565b60008115159050919050565b6114ee816114d9565b81146114f957600080fd5b50565b60008151905061150b816114e5565b92915050565b60006020828403121561152757611526610e1a565b5b6000611535848285016114fc565b91505092915050565b7f5573657220686173206e6f742072656769737465726564207965742e2052656760008201527f697374657220746865206163636f756e74000000000000000000000000000000602082015250565b600061159a6031836111af565b91506115a58261153e565b604082019050919050565b600060208201905081810360008301526115c98161158d565b9050919050565b60006040820190506115e560008301856110f1565b81810360208301526115f781846111ea565b90509392505050565b7f486f757365206973206e6f7420726567697374657265642e0000000000000000600082015250565b60006116366018836111af565b915061164182611600565b602082019050919050565b6000602082019050818103600083015261166581611629565b9050919050565b600060608201905061168160008301866110f1565b818103602083015261169381856111ea565b90506116a26040830184611195565b949350505050565b7f4e487b7100000000000000000000000000000000000000000000000000000000600052601160045260246000fd5b60006116e482610e24565b91507fffffffffffffffffffffffffffffffffffffffffffffffffffffffffffffffff8203611716576117156116aa565b5b600182019050919050565b60006020601f8301049050919050565b600082821b905092915050565b60006008830261176e7fffffffffffffffffffffffffffffffffffffffffffffffffffffffffffffffff82611731565b6117788683611731565b95508019841693508086168417925050509392505050565b60006117ab6117a66117a184610e24565b61111b565b610e24565b9050919050565b6000819050919050565b6117c583611790565b6117d96117d1826117b2565b84845461173e565b825550505050565b600090565b6117ee6117e1565b6117f98184846117bc565b505050565b5b8181101561181d576118126000826117e6565b6001810190506117ff565b5050565b601f8211156118625761183381611402565b61183c84611721565b8101602085101561184b578190505b61185f61185785611721565b8301826117fe565b50505b505050565b600082821c905092915050565b600061188560001984600802611867565b1980831691505092915050565b600061189e8383611874565b9150826002028217905092915050565b6118b7826111a4565b67ffffffffffffffff8111156118d0576118cf610ea2565b5b6118da82546113d1565b6118e5828285611821565b600060209050601f8311600181146119185760008415611906578287015190505b6119108582611892565b865550611978565b601f19841661192686611402565b60005b8281101561194e57848901518255600182019150602085019450602081019050611929565b8683101561196b5784890151611967601f891682611874565b8355505b6001600288020188555050505b505050505050565b7f416420446f65736e277420457869737400000000000000000000000000000000600082015250565b60006119b66010836111af565b91506119c182611980565b602082019050919050565b600060208201905081810360008301526119e5816119a9565b9050919050565b60006119f782610e24565b9150611a0283610e24565b9250828203905081811115611a1a57611a196116aa565b5b92915050565b7f4e756d626572206f6620756e69742077616e7420746f2070757263686173652060008201527f6578636565642066726f6d20746865204164206c696d69740000000000000000602082015250565b6000611a7c6038836111af565b9150611a8782611a20565b604082019050919050565b60006020820190508181036000830152611aab81611a6f565b9050919050565b6000604082019050611ac760008301856110f1565b611ad46020830184611195565b9392505050565b7f446f65736e2774204861766520436f75706f6e20746f20617661696c2064697360008201527f636f756e74000000000000000000000000000000000000000000000000000000602082015250565b6000611b376025836111af565b9150611b4282611adb565b604082019050919050565b60006020820190508181036000830152611b6681611b2a565b9050919050565b600081519050611b7c81610e2e565b92915050565b600060208284031215611b9857611b97610e1a565b5b6000611ba684828501611b6d565b91505092915050565b6000611bba82610e24565b9150611bc583610e24565b9250828201905080821115611bdd57611bdc6116aa565b5b9291505056fea2646970667358221220e0b4897416cb341647ea7d8cbc85798f23fcc29b48b48250663d2b0ec8c33e8e64736f6c63430008180033",
  "linkReferences": {},
  "deployedLinkReferences": {}
}