{
  "_format": "hh-sol-artifact-1",
  "contractName": "UserRegistery",
  "sourceName": "contracts/User.sol",
  "abi": [
    {
      "anonymous": false,
      "inputs": [
        {
          "indexed": false,
          "internalType": "uint256",
          "name": "houseId",
          "type": "uint256"
        },
        {
          "indexed": false,
          "internalType": "string",
          "name": "houseAddress",
          "type": "string"
        },
        {
          "indexed": false,
          "internalType": "uint256",
          "name": "powerUnits",
          "type": "uint256"
        }
      ],
      "name": "AddHouse",
      "type": "event"
    },
    {
      "anonymous": false,
      "inputs": [
        {
          "indexed": true,
          "internalType": "address",
          "name": "userAddress",
          "type": "address"
        },
        {
          "indexed": false,
          "internalType": "uint32",
          "name": "loyaltyPoints",
          "type": "uint32"
        },
        {
          "components": [
            {
              "internalType": "enum UserRegistery.CouponsEnum",
              "name": "name",
              "type": "uint8"
            },
            {
              "internalType": "uint8",
              "name": "disc",
              "type": "uint8"
            },
            {
              "internalType": "uint8",
              "name": "numOfCoupons",
              "type": "uint8"
            }
          ],
          "indexed": false,
          "internalType": "struct UserRegistery.Couponse[]",
          "name": "personalCoupons",
          "type": "tuple[]"
        },
        {
          "components": [
            {
              "internalType": "uint256",
              "name": "id",
              "type": "uint256"
            },
            {
              "internalType": "string",
              "name": "houseAddress",
              "type": "string"
            },
            {
              "internalType": "uint256",
              "name": "powerUnits",
              "type": "uint256"
            }
          ],
          "indexed": false,
          "internalType": "struct UserRegistery.House[]",
          "name": "houses",
          "type": "tuple[]"
        }
      ],
      "name": "UserDataUpdated",
      "type": "event"
    },
    {
      "inputs": [
        {
          "internalType": "address",
          "name": "",
          "type": "address"
        }
      ],
      "name": "Users",
      "outputs": [
        {
          "internalType": "address",
          "name": "walletAddress",
          "type": "address"
        },
        {
          "internalType": "uint32",
          "name": "loyalityPoints",
          "type": "uint32"
        }
      ],
      "stateMutability": "view",
      "type": "function"
    },
    {
      "inputs": [
        {
          "internalType": "address",
          "name": "user",
          "type": "address"
        },
        {
          "internalType": "uint256",
          "name": "couponEnum",
          "type": "uint256"
        }
      ],
      "name": "availDiscount",
      "outputs": [
        {
          "internalType": "uint256",
          "name": "",
          "type": "uint256"
        }
      ],
      "stateMutability": "view",
      "type": "function"
    },
    {
      "inputs": [
        {
          "internalType": "enum UserRegistery.CouponsEnum",
          "name": "couponName",
          "type": "uint8"
        }
      ],
      "name": "buyCoupons",
      "outputs": [],
      "stateMutability": "nonpayable",
      "type": "function"
    },
    {
      "inputs": [
        {
          "internalType": "address",
          "name": "userAdd",
          "type": "address"
        },
        {
          "internalType": "uint256",
          "name": "houseId",
          "type": "uint256"
        },
        {
          "internalType": "uint256",
          "name": "numOfUnits",
          "type": "uint256"
        }
      ],
      "name": "deductUnits",
      "outputs": [],
      "stateMutability": "nonpayable",
      "type": "function"
    },
    {
      "inputs": [
        {
          "internalType": "uint256",
          "name": "houseId",
          "type": "uint256"
        }
      ],
      "name": "deleteHouse",
      "outputs": [],
      "stateMutability": "nonpayable",
      "type": "function"
    },
    {
      "inputs": [
        {
          "internalType": "uint256",
          "name": "houseId",
          "type": "uint256"
        },
        {
          "internalType": "uint256",
          "name": "noOfUnits",
          "type": "uint256"
        }
      ],
      "name": "depositUnits",
      "outputs": [],
      "stateMutability": "nonpayable",
      "type": "function"
    },
    {
      "inputs": [
        {
          "internalType": "address",
          "name": "addr",
          "type": "address"
        },
        {
          "internalType": "uint256",
          "name": "houseId",
          "type": "uint256"
        }
      ],
      "name": "doExist",
      "outputs": [
        {
          "internalType": "bool",
          "name": "",
          "type": "bool"
        }
      ],
      "stateMutability": "view",
      "type": "function"
    },
    {
      "inputs": [
        {
          "internalType": "address",
          "name": "user",
          "type": "address"
        },
        {
          "internalType": "uint256",
          "name": "couponEnum",
          "type": "uint256"
        }
      ],
      "name": "doesUserHaveCoupon",
      "outputs": [
        {
          "internalType": "bool",
          "name": "",
          "type": "bool"
        }
      ],
      "stateMutability": "view",
      "type": "function"
    },
    {
      "inputs": [],
      "name": "getAllUserCoupons",
      "outputs": [
        {
          "components": [
            {
              "internalType": "enum UserRegistery.CouponsEnum",
              "name": "name",
              "type": "uint8"
            },
            {
              "internalType": "uint8",
              "name": "disc",
              "type": "uint8"
            },
            {
              "internalType": "uint8",
              "name": "numOfCoupons",
              "type": "uint8"
            }
          ],
          "internalType": "struct UserRegistery.Couponse[]",
          "name": "",
          "type": "tuple[]"
        }
      ],
      "stateMutability": "view",
      "type": "function"
    },
    {
      "inputs": [
        {
          "internalType": "uint256",
          "name": "houseId",
          "type": "uint256"
        }
      ],
      "name": "getUserHouse",
      "outputs": [
        {
          "components": [
            {
              "internalType": "uint256",
              "name": "id",
              "type": "uint256"
            },
            {
              "internalType": "string",
              "name": "houseAddress",
              "type": "string"
            },
            {
              "internalType": "uint256",
              "name": "powerUnits",
              "type": "uint256"
            }
          ],
          "internalType": "struct UserRegistery.House",
          "name": "",
          "type": "tuple"
        }
      ],
      "stateMutability": "view",
      "type": "function"
    },
    {
      "inputs": [
        {
          "internalType": "uint256",
          "name": "",
          "type": "uint256"
        }
      ],
      "name": "houses",
      "outputs": [
        {
          "internalType": "uint256",
          "name": "id",
          "type": "uint256"
        },
        {
          "internalType": "string",
          "name": "houseAddress",
          "type": "string"
        },
        {
          "internalType": "uint256",
          "name": "powerUnits",
          "type": "uint256"
        }
      ],
      "stateMutability": "view",
      "type": "function"
    },
    {
      "inputs": [
        {
          "internalType": "address",
          "name": "addr",
          "type": "address"
        }
      ],
      "name": "isValidUser",
      "outputs": [
        {
          "internalType": "bool",
          "name": "",
          "type": "bool"
        }
      ],
      "stateMutability": "view",
      "type": "function"
    },
    {
      "inputs": [
        {
          "internalType": "address",
          "name": "addr",
          "type": "address"
        },
        {
          "internalType": "uint256",
          "name": "houseId",
          "type": "uint256"
        }
      ],
      "name": "isValidUserHouse",
      "outputs": [
        {
          "internalType": "bool",
          "name": "",
          "type": "bool"
        }
      ],
      "stateMutability": "view",
      "type": "function"
    },
    {
      "inputs": [
        {
          "internalType": "string",
          "name": "houseAddr",
          "type": "string"
        }
      ],
      "name": "registerNewHouse",
      "outputs": [],
      "stateMutability": "nonpayable",
      "type": "function"
    },
    {
      "inputs": [],
      "name": "registerUser",
      "outputs": [],
      "stateMutability": "nonpayable",
      "type": "function"
    },
    {
      "inputs": [
        {
          "internalType": "address",
          "name": "userAdd",
          "type": "address"
        },
        {
          "internalType": "uint256",
          "name": "houseId",
          "type": "uint256"
        },
        {
          "internalType": "uint256",
          "name": "numOfUnits",
          "type": "uint256"
        }
      ],
      "name": "widthrawalUnitsFromOrder",
      "outputs": [],
      "stateMutability": "nonpayable",
      "type": "function"
    },
    {
      "inputs": [
        {
          "internalType": "uint256",
          "name": "houseId",
          "type": "uint256"
        },
        {
          "internalType": "uint256",
          "name": "noOfUnits",
          "type": "uint256"
        }
      ],
      "name": "withdrawalUnits",
      "outputs": [],
      "stateMutability": "nonpayable",
      "type": "function"
    }
  ],
  "bytecode": "0x6080604052600060025534801561001557600080fd5b50613e8e806100256000396000f3fe608060405234801561001057600080fd5b506004361061010b5760003560e01c8063925893c4116100a2578063cdeb485c11610071578063cdeb485c146102b7578063d66188a3146102e7578063f3c95c6014610303578063f9edb9b414610333578063ff6c36dc1461034f5761010b565b8063925893c41461020657806399b956a014610236578063a3faccfb14610267578063aeda852f146102855761010b565b80634d3820eb116100de5780634d3820eb1461019457806378e1a3631461019e57806380453f76146101ba57806380c912aa146101d65761010b565b806321dac9631461011057806322b8117e1461012c578063287df500146101485780634c9b56fd14610178575b600080fd5b61012a60048036038101906101259190612953565b61037f565b005b610146600480360381019061014191906129a6565b610523565b005b610162600480360381019061015d91906129e6565b6106f7565b60405161016f9190612b02565b60405180910390f35b610192600480360381019061018d91906129e6565b6108e3565b005b61019c610b48565b005b6101b860048036038101906101b39190612c59565b610f4e565b005b6101d460048036038101906101cf9190612953565b6111c2565b005b6101f060048036038101906101eb9190612ca2565b611438565b6040516101fd9190612cf1565b60405180910390f35b610220600480360381019061021b9190612ca2565b6114e3565b60405161022d9190612d27565b60405180910390f35b610250600480360381019061024b9190612d42565b611657565b60405161025e929190612d9d565b60405180910390f35b61026f6116ab565b60405161027c9190612f4a565b60405180910390f35b61029f600480360381019061029a91906129e6565b611a82565b6040516102ae93929190612fb6565b60405180910390f35b6102d160048036038101906102cc9190612ca2565b611b34565b6040516102de9190612d27565b60405180910390f35b61030160048036038101906102fc9190613019565b611be2565b005b61031d60048036038101906103189190612d42565b611e6c565b60405161032a9190612d27565b60405180910390f35b61034d600480360381019061034891906129a6565b611fd9565b005b61036960048036038101906103649190612ca2565b612096565b6040516103769190612d27565b60405180910390f35b600073ffffffffffffffffffffffffffffffffffffffff166000808573ffffffffffffffffffffffffffffffffffffffff1673ffffffffffffffffffffffffffffffffffffffff16815260200190815260200160002060000160009054906101000a900473ffffffffffffffffffffffffffffffffffffffff1673ffffffffffffffffffffffffffffffffffffffff160361044f576040517f08c379a000000000000000000000000000000000000000000000000000000000815260040161044690613092565b60405180910390fd5b61045983836114e3565b610498576040517f08c379a000000000000000000000000000000000000000000000000000000000815260040161048f90613124565b60405180910390fd5b80600160008481526020019081526020016000206002015410156104f1576040517f08c379a00000000000000000000000000000000000000000000000000000000081526004016104e8906131b6565b60405180910390fd5b806001600084815260200190815260200160002060020160008282546105179190613205565b92505081905550505050565b600073ffffffffffffffffffffffffffffffffffffffff166000803373ffffffffffffffffffffffffffffffffffffffff1673ffffffffffffffffffffffffffffffffffffffff16815260200190815260200160002060000160009054906101000a900473ffffffffffffffffffffffffffffffffffffffff1673ffffffffffffffffffffffffffffffffffffffff16036105f3576040517f08c379a00000000000000000000000000000000000000000000000000000000081526004016105ea90613285565b60405180910390fd5b60008111610636576040517f08c379a000000000000000000000000000000000000000000000000000000000815260040161062d90613317565b60405180910390fd5b60008060003373ffffffffffffffffffffffffffffffffffffffff1673ffffffffffffffffffffffffffffffffffffffff16815260200190815260200160002090508160016000858152602001908152602001600020600201600082825461069e9190613205565b92505081905550600a826106b29190613366565b8160000160148282829054906101000a900463ffffffff166106d49190613397565b92506101000a81548163ffffffff021916908363ffffffff160217905550505050565b6106ff6127f4565b600073ffffffffffffffffffffffffffffffffffffffff166000803373ffffffffffffffffffffffffffffffffffffffff1673ffffffffffffffffffffffffffffffffffffffff16815260200190815260200160002060000160009054906101000a900473ffffffffffffffffffffffffffffffffffffffff1673ffffffffffffffffffffffffffffffffffffffff16036107cf576040517f08c379a00000000000000000000000000000000000000000000000000000000081526004016107c69061341b565b60405180910390fd5b6107d933836114e3565b610818576040517f08c379a000000000000000000000000000000000000000000000000000000000815260040161080f906134ad565b60405180910390fd5b6001600083815260200190815260200160002060405180606001604052908160008201548152602001600182018054610850906134fc565b80601f016020809104026020016040519081016040528092919081815260200182805461087c906134fc565b80156108c95780601f1061089e576101008083540402835291602001916108c9565b820191906000526020600020905b8154815290600101906020018083116108ac57829003601f168201915b505050505081526020016002820154815250509050919050565b33600073ffffffffffffffffffffffffffffffffffffffff166000808373ffffffffffffffffffffffffffffffffffffffff1673ffffffffffffffffffffffffffffffffffffffff16815260200190815260200160002060000160009054906101000a900473ffffffffffffffffffffffffffffffffffffffff1673ffffffffffffffffffffffffffffffffffffffff16036109b4576040517f08c379a00000000000000000000000000000000000000000000000000000000081526004016109ab9061359f565b60405180910390fd5b6109be33836114e3565b6109fd576040517f08c379a00000000000000000000000000000000000000000000000000000000081526004016109f49061360b565b60405180910390fd5b60016000838152602001908152602001600020600080820160009055600182016000610a299190612815565b6002820160009055505060008060003373ffffffffffffffffffffffffffffffffffffffff1673ffffffffffffffffffffffffffffffffffffffff168152602001908152602001600020905060005b8160010180549050811015610b425783826001018281548110610a9e57610a9d61362b565b5b906000526020600020015403610b35578160010160018360010180549050610ac6919061365a565b81548110610ad757610ad661362b565b5b9060005260206000200154826001018281548110610af857610af761362b565b5b906000526020600020018190555081600101805480610b1a57610b1961368e565b5b60019003818190600052602060002001600090559055610b42565b8080600101915050610a78565b50505050565b600073ffffffffffffffffffffffffffffffffffffffff166000803373ffffffffffffffffffffffffffffffffffffffff1673ffffffffffffffffffffffffffffffffffffffff16815260200190815260200160002060000160009054906101000a900473ffffffffffffffffffffffffffffffffffffffff1673ffffffffffffffffffffffffffffffffffffffff1614610beb57610be633612196565b610f4c565b60008060003373ffffffffffffffffffffffffffffffffffffffff1673ffffffffffffffffffffffffffffffffffffffff1681526020019081526020016000209050338160000160006101000a81548173ffffffffffffffffffffffffffffffffffffffff021916908373ffffffffffffffffffffffffffffffffffffffff1602179055506127108160000160146101000a81548163ffffffff021916908363ffffffff160217905550604051806060016040528060006002811115610cb457610cb3612df2565b5b8152602001600260ff168152602001600060ff16815250816002016000806002811115610ce457610ce3612df2565b5b6002811115610cf657610cf5612df2565b5b815260200190815260200160002060008201518160000160006101000a81548160ff02191690836002811115610d2f57610d2e612df2565b5b021790555060208201518160000160016101000a81548160ff021916908360ff16021790555060408201518160000160026101000a81548160ff021916908360ff160217905550905050604051806060016040528060016002811115610d9857610d97612df2565b5b8152602001600560ff168152602001600060ff1681525081600201600060016002811115610dc957610dc8612df2565b5b6002811115610ddb57610dda612df2565b5b815260200190815260200160002060008201518160000160006101000a81548160ff02191690836002811115610e1457610e13612df2565b5b021790555060208201518160000160016101000a81548160ff021916908360ff16021790555060408201518160000160026101000a81548160ff021916908360ff1602179055509050506040518060600160405280600280811115610e7c57610e7b612df2565b5b8152602001600a60ff168152602001600060ff16815250816002016000600280811115610eac57610eab612df2565b5b6002811115610ebe57610ebd612df2565b5b815260200190815260200160002060008201518160000160006101000a81548160ff02191690836002811115610ef757610ef6612df2565b5b021790555060208201518160000160016101000a81548160ff021916908360ff16021790555060408201518160000160026101000a81548160ff021916908360ff160217905550905050610f4a33612196565b505b565b60008060003373ffffffffffffffffffffffffffffffffffffffff1673ffffffffffffffffffffffffffffffffffffffff1681526020019081526020016000209050600073ffffffffffffffffffffffffffffffffffffffff168160000160009054906101000a900473ffffffffffffffffffffffffffffffffffffffff1673ffffffffffffffffffffffffffffffffffffffff1603611023576040517f08c379a000000000000000000000000000000000000000000000000000000000815260040161101a90613709565b60405180910390fd5b60005b816001018054905081101561110557826040516020016110469190613765565b60405160208183030381529060405280519060200120600160008460010184815481106110765761107561362b565b5b906000526020600020015481526020019081526020016000206001016040516020016110a29190613814565b60405160208183030381529060405280519060200120036110f8576040517f08c379a00000000000000000000000000000000000000000000000000000000081526004016110ef90613877565b60405180910390fd5b8080600101915050611026565b50600060405180606001604052806002548152602001848152602001600081525090508060016000600254815260200190815260200160002060008201518160000155602082015181600101908161115d9190613a2e565b5060408201518160020155905050816001016002549080600181540180825580915050600190039060005260206000200160009091909190915055600260008154809291906111ab90613b00565b91905055506111bd81600001516126e1565b505050565b82600073ffffffffffffffffffffffffffffffffffffffff166000808373ffffffffffffffffffffffffffffffffffffffff1673ffffffffffffffffffffffffffffffffffffffff16815260200190815260200160002060000160009054906101000a900473ffffffffffffffffffffffffffffffffffffffff1673ffffffffffffffffffffffffffffffffffffffff1603611293576040517f08c379a000000000000000000000000000000000000000000000000000000000815260040161128a9061359f565b60405180910390fd5b600073ffffffffffffffffffffffffffffffffffffffff166000808673ffffffffffffffffffffffffffffffffffffffff1673ffffffffffffffffffffffffffffffffffffffff16815260200190815260200160002060000160009054906101000a900473ffffffffffffffffffffffffffffffffffffffff1673ffffffffffffffffffffffffffffffffffffffff1603611363576040517f08c379a000000000000000000000000000000000000000000000000000000000815260040161135a90613092565b60405180910390fd5b61136d84846114e3565b6113ac576040517f08c379a00000000000000000000000000000000000000000000000000000000081526004016113a390613124565b60405180910390fd5b8160016000858152602001908152602001600020600201541015611405576040517f08c379a00000000000000000000000000000000000000000000000000000000081526004016113fc906131b6565b60405180910390fd5b8160016000858152602001908152602001600020600201600082825461142b919061365a565b9250508190555050505050565b60008082600281111561144e5761144d612df2565b5b90506000808573ffffffffffffffffffffffffffffffffffffffff1673ffffffffffffffffffffffffffffffffffffffff16815260200190815260200160002060020160008260028111156114a6576114a5612df2565b5b60028111156114b8576114b7612df2565b5b815260200190815260200160002060000160019054906101000a900460ff1660ff1691505092915050565b600082600073ffffffffffffffffffffffffffffffffffffffff166000808373ffffffffffffffffffffffffffffffffffffffff1673ffffffffffffffffffffffffffffffffffffffff16815260200190815260200160002060000160009054906101000a900473ffffffffffffffffffffffffffffffffffffffff1673ffffffffffffffffffffffffffffffffffffffff16036115b6576040517f08c379a00000000000000000000000000000000000000000000000000000000081526004016115ad9061359f565b60405180910390fd5b60008060008673ffffffffffffffffffffffffffffffffffffffff1673ffffffffffffffffffffffffffffffffffffffff168152602001908152602001600020905060005b816001018054905081101561164957848260010182815481106116215761162061362b565b5b90600052602060002001540361163c57600193505050611650565b80806001019150506115fb565b5060009250505b5092915050565b60006020528060005260406000206000915090508060000160009054906101000a900473ffffffffffffffffffffffffffffffffffffffff16908060000160149054906101000a900463ffffffff16905082565b60606000600367ffffffffffffffff8111156116ca576116c9612b2e565b5b60405190808252806020026020018201604052801561170357816020015b6116f0612855565b8152602001906001900390816116e85790505b5090506000803373ffffffffffffffffffffffffffffffffffffffff1673ffffffffffffffffffffffffffffffffffffffff168152602001908152602001600020600201600080600281111561175c5761175b612df2565b5b600281111561176e5761176d612df2565b5b81526020019081526020016000206040518060600160405290816000820160009054906101000a900460ff1660028111156117ac576117ab612df2565b5b60028111156117be576117bd612df2565b5b81526020016000820160019054906101000a900460ff1660ff1660ff1681526020016000820160029054906101000a900460ff1660ff1660ff1681525050816000600281111561181157611810612df2565b5b815181106118225761182161362b565b5b60200260200101819052506000803373ffffffffffffffffffffffffffffffffffffffff1673ffffffffffffffffffffffffffffffffffffffff16815260200190815260200160002060020160006001600281111561188457611883612df2565b5b600281111561189657611895612df2565b5b81526020019081526020016000206040518060600160405290816000820160009054906101000a900460ff1660028111156118d4576118d3612df2565b5b60028111156118e6576118e5612df2565b5b81526020016000820160019054906101000a900460ff1660ff1660ff1681526020016000820160029054906101000a900460ff1660ff1660ff1681525050816001600281111561193957611938612df2565b5b8151811061194a5761194961362b565b5b60200260200101819052506000803373ffffffffffffffffffffffffffffffffffffffff1673ffffffffffffffffffffffffffffffffffffffff16815260200190815260200160002060020160006002808111156119ab576119aa612df2565b5b60028111156119bd576119bc612df2565b5b81526020019081526020016000206040518060600160405290816000820160009054906101000a900460ff1660028111156119fb576119fa612df2565b5b6002811115611a0d57611a0c612df2565b5b81526020016000820160019054906101000a900460ff1660ff1660ff1681526020016000820160029054906101000a900460ff1660ff1660ff168152505081600280811115611a5f57611a5e612df2565b5b81518110611a7057611a6f61362b565b5b60200260200101819052508091505090565b6001602052806000526040600020600091509050806000015490806001018054611aab906134fc565b80601f0160208091040260200160405190810160405280929190818152602001828054611ad7906134fc565b8015611b245780601f10611af957610100808354040283529160200191611b24565b820191906000526020600020905b815481529060010190602001808311611b0757829003601f168201915b5050505050908060020154905083565b600080826002811115611b4a57611b49612df2565b5b905060008060008673ffffffffffffffffffffffffffffffffffffffff1673ffffffffffffffffffffffffffffffffffffffff1681526020019081526020016000206002016000836002811115611ba457611ba3612df2565b5b6002811115611bb657611bb5612df2565b5b815260200190815260200160002060000160029054906101000a900460ff1660ff161191505092915050565b60008060003373ffffffffffffffffffffffffffffffffffffffff1673ffffffffffffffffffffffffffffffffffffffff16815260200190815260200160002090506000806002811115611c3957611c38612df2565b5b836002811115611c4c57611c4b612df2565b5b03611c5a5760029050611cc1565b60016002811115611c6e57611c6d612df2565b5b836002811115611c8157611c80612df2565b5b03611c8f5760059050611cc0565b600280811115611ca257611ca1612df2565b5b836002811115611cb557611cb4612df2565b5b03611cbf57600a90505b5b5b600a81611cce9190613b48565b60ff168260000160149054906101000a900463ffffffff1663ffffffff1611611d2c576040517f08c379a0000000000000000000000000000000000000000000000000000000008152600401611d2390613bd1565b60405180910390fd5b600a81611d399190613b48565b60ff168260000160148282829054906101000a900463ffffffff16611d5e9190613bf1565b92506101000a81548163ffffffff021916908363ffffffff1602179055506040518060600160405280846002811115611d9a57611d99612df2565b5b81526020018260ff168152602001600160ff16815250826002016000856002811115611dc957611dc8612df2565b5b6002811115611ddb57611dda612df2565b5b815260200190815260200160002060008201518160000160006101000a81548160ff02191690836002811115611e1457611e13612df2565b5b021790555060208201518160000160016101000a81548160ff021916908360ff16021790555060408201518160000160026101000a81548160ff021916908360ff160217905550905050611e6733612196565b505050565b600081600073ffffffffffffffffffffffffffffffffffffffff166000808373ffffffffffffffffffffffffffffffffffffffff1673ffffffffffffffffffffffffffffffffffffffff16815260200190815260200160002060000160009054906101000a900473ffffffffffffffffffffffffffffffffffffffff1673ffffffffffffffffffffffffffffffffffffffff1603611f3f576040517f08c379a0000000000000000000000000000000000000000000000000000000008152600401611f369061359f565b60405180910390fd5b600073ffffffffffffffffffffffffffffffffffffffff166000808573ffffffffffffffffffffffffffffffffffffffff1673ffffffffffffffffffffffffffffffffffffffff16815260200190815260200160002060000160009054906101000a900473ffffffffffffffffffffffffffffffffffffffff1673ffffffffffffffffffffffffffffffffffffffff161415915050919050565b611fe333836114e3565b612022576040517f08c379a000000000000000000000000000000000000000000000000000000000815260040161201990613c75565b60405180910390fd5b60008111612065576040517f08c379a000000000000000000000000000000000000000000000000000000000815260040161205c90613317565b60405180910390fd5b8060016000848152602001908152602001600020600201600082825461208b9190613205565b925050819055505050565b60008073ffffffffffffffffffffffffffffffffffffffff166000808573ffffffffffffffffffffffffffffffffffffffff1673ffffffffffffffffffffffffffffffffffffffff16815260200190815260200160002060000160009054906101000a900473ffffffffffffffffffffffffffffffffffffffff1673ffffffffffffffffffffffffffffffffffffffff1603612167576040517f08c379a000000000000000000000000000000000000000000000000000000000815260040161215e90613ce1565b60405180910390fd5b600060016000848152602001908152602001600020600101805461218a906134fc565b90501415905092915050565b60008060008373ffffffffffffffffffffffffffffffffffffffff1673ffffffffffffffffffffffffffffffffffffffff16815260200190815260200160002090506000600367ffffffffffffffff8111156121f5576121f4612b2e565b5b60405190808252806020026020018201604052801561222e57816020015b61221b612855565b8152602001906001900390816122135790505b50905081600201600080600281111561224a57612249612df2565b5b600281111561225c5761225b612df2565b5b81526020019081526020016000206040518060600160405290816000820160009054906101000a900460ff16600281111561229a57612299612df2565b5b60028111156122ac576122ab612df2565b5b81526020016000820160019054906101000a900460ff1660ff1660ff1681526020016000820160029054906101000a900460ff1660ff1660ff168152505081600060028111156122ff576122fe612df2565b5b815181106123105761230f61362b565b5b60200260200101819052508160020160006001600281111561233557612334612df2565b5b600281111561234757612346612df2565b5b81526020019081526020016000206040518060600160405290816000820160009054906101000a900460ff16600281111561238557612384612df2565b5b600281111561239757612396612df2565b5b81526020016000820160019054906101000a900460ff1660ff1660ff1681526020016000820160029054906101000a900460ff1660ff1660ff168152505081600160028111156123ea576123e9612df2565b5b815181106123fb576123fa61362b565b5b602002602001018190525081600201600060028081111561241f5761241e612df2565b5b600281111561243157612430612df2565b5b81526020019081526020016000206040518060600160405290816000820160009054906101000a900460ff16600281111561246f5761246e612df2565b5b600281111561248157612480612df2565b5b81526020016000820160019054906101000a900460ff1660ff1660ff1681526020016000820160029054906101000a900460ff1660ff1660ff1681525050816002808111156124d3576124d2612df2565b5b815181106124e4576124e361362b565b5b602002602001018190525060008260010180549050905060008167ffffffffffffffff81111561251757612516612b2e565b5b60405190808252806020026020018201604052801561255057816020015b61253d6127f4565b8152602001906001900390816125355790505b50905060005b828110156126735760008560010182815481106125765761257561362b565b5b9060005260206000200154905060016000828152602001908152602001600020604051806060016040529081600082015481526020016001820180546125bb906134fc565b80601f01602080910402602001604051908101604052809291908181526020018280546125e7906134fc565b80156126345780601f1061260957610100808354040283529160200191612634565b820191906000526020600020905b81548152906001019060200180831161261757829003601f168201915b5050505050815260200160028201548152505083838151811061265a5761265961362b565b5b6020026020010181905250508080600101915050612556565b508473ffffffffffffffffffffffffffffffffffffffff167f22c046951bc7e9a7b62b5c00ccfacf174730492bc21e66644c19e5e3af26db858560000160149054906101000a900463ffffffff1685846040516126d293929190613e13565b60405180910390a25050505050565b6000600160008381526020019081526020016000206040518060600160405290816000820154815260200160018201805461271b906134fc565b80601f0160208091040260200160405190810160405280929190818152602001828054612747906134fc565b80156127945780601f1061276957610100808354040283529160200191612794565b820191906000526020600020905b81548152906001019060200180831161277757829003601f168201915b5050505050815260200160028201548152505090507f991ae465e96b07ac9efe0b0b3b3382a4bb657806a7a63e7403d43a69f990d75b8160000151826020015183604001516040516127e893929190612fb6565b60405180910390a15050565b60405180606001604052806000815260200160608152602001600081525090565b508054612821906134fc565b6000825580601f106128335750612852565b601f016020900490600052602060002090810190612851919061288e565b5b50565b60405180606001604052806000600281111561287457612873612df2565b5b8152602001600060ff168152602001600060ff1681525090565b5b808211156128a757600081600090555060010161288f565b5090565b6000604051905090565b600080fd5b600080fd5b600073ffffffffffffffffffffffffffffffffffffffff82169050919050565b60006128ea826128bf565b9050919050565b6128fa816128df565b811461290557600080fd5b50565b600081359050612917816128f1565b92915050565b6000819050919050565b6129308161291d565b811461293b57600080fd5b50565b60008135905061294d81612927565b92915050565b60008060006060848603121561296c5761296b6128b5565b5b600061297a86828701612908565b935050602061298b8682870161293e565b925050604061299c8682870161293e565b9150509250925092565b600080604083850312156129bd576129bc6128b5565b5b60006129cb8582860161293e565b92505060206129dc8582860161293e565b9150509250929050565b6000602082840312156129fc576129fb6128b5565b5b6000612a0a8482850161293e565b91505092915050565b612a1c8161291d565b82525050565b600081519050919050565b600082825260208201905092915050565b60005b83811015612a5c578082015181840152602081019050612a41565b60008484015250505050565b6000601f19601f8301169050919050565b6000612a8482612a22565b612a8e8185612a2d565b9350612a9e818560208601612a3e565b612aa781612a68565b840191505092915050565b6000606083016000830151612aca6000860182612a13565b5060208301518482036020860152612ae28282612a79565b9150506040830151612af76040860182612a13565b508091505092915050565b60006020820190508181036000830152612b1c8184612ab2565b905092915050565b600080fd5b600080fd5b7f4e487b7100000000000000000000000000000000000000000000000000000000600052604160045260246000fd5b612b6682612a68565b810181811067ffffffffffffffff82111715612b8557612b84612b2e565b5b80604052505050565b6000612b986128ab565b9050612ba48282612b5d565b919050565b600067ffffffffffffffff821115612bc457612bc3612b2e565b5b612bcd82612a68565b9050602081019050919050565b82818337600083830152505050565b6000612bfc612bf784612ba9565b612b8e565b905082815260208101848484011115612c1857612c17612b29565b5b612c23848285612bda565b509392505050565b600082601f830112612c4057612c3f612b24565b5b8135612c50848260208601612be9565b91505092915050565b600060208284031215612c6f57612c6e6128b5565b5b600082013567ffffffffffffffff811115612c8d57612c8c6128ba565b5b612c9984828501612c2b565b91505092915050565b60008060408385031215612cb957612cb86128b5565b5b6000612cc785828601612908565b9250506020612cd88582860161293e565b9150509250929050565b612ceb8161291d565b82525050565b6000602082019050612d066000830184612ce2565b92915050565b60008115159050919050565b612d2181612d0c565b82525050565b6000602082019050612d3c6000830184612d18565b92915050565b600060208284031215612d5857612d576128b5565b5b6000612d6684828501612908565b91505092915050565b612d78816128df565b82525050565b600063ffffffff82169050919050565b612d9781612d7e565b82525050565b6000604082019050612db26000830185612d6f565b612dbf6020830184612d8e565b9392505050565b600081519050919050565b600082825260208201905092915050565b6000819050602082019050919050565b7f4e487b7100000000000000000000000000000000000000000000000000000000600052602160045260246000fd5b60038110612e3257612e31612df2565b5b50565b6000819050612e4382612e21565b919050565b6000612e5382612e35565b9050919050565b612e6381612e48565b82525050565b600060ff82169050919050565b612e7f81612e69565b82525050565b606082016000820151612e9b6000850182612e5a565b506020820151612eae6020850182612e76565b506040820151612ec16040850182612e76565b50505050565b6000612ed38383612e85565b60608301905092915050565b6000602082019050919050565b6000612ef782612dc6565b612f018185612dd1565b9350612f0c83612de2565b8060005b83811015612f3d578151612f248882612ec7565b9750612f2f83612edf565b925050600181019050612f10565b5085935050505092915050565b60006020820190508181036000830152612f648184612eec565b905092915050565b600082825260208201905092915050565b6000612f8882612a22565b612f928185612f6c565b9350612fa2818560208601612a3e565b612fab81612a68565b840191505092915050565b6000606082019050612fcb6000830186612ce2565b8181036020830152612fdd8185612f7d565b9050612fec6040830184612ce2565b949350505050565b6003811061300157600080fd5b50565b60008135905061301381612ff4565b92915050565b60006020828403121561302f5761302e6128b5565b5b600061303d84828501613004565b91505092915050565b7f5573657220646f65732774204578697374000000000000000000000000000000600082015250565b600061307c601183612f6c565b915061308782613046565b602082019050919050565b600060208201905081810360008301526130ab8161306f565b9050919050565b7f5573657220646f65736e27742068617665207265676973746572656420686f7560008201527f7365204964000000000000000000000000000000000000000000000000000000602082015250565b600061310e602583612f6c565b9150613119826130b2565b604082019050919050565b6000602082019050818103600083015261313d81613101565b9050919050565b7f557365722073686f756c64206861766520706f77657220756e69747320696e2060008201527f7468656972206163636f756e742e000000000000000000000000000000000000602082015250565b60006131a0602e83612f6c565b91506131ab82613144565b604082019050919050565b600060208201905081810360008301526131cf81613193565b9050919050565b7f4e487b7100000000000000000000000000000000000000000000000000000000600052601160045260246000fd5b60006132108261291d565b915061321b8361291d565b9250828201905080821115613233576132326131d6565b5b92915050565b7f5573657220646f65736e27742045786973742e00000000000000000000000000600082015250565b600061326f601383612f6c565b915061327a82613239565b602082019050919050565b6000602082019050818103600083015261329e81613262565b9050919050565b7f4e6f206f6620556e697473206d7573742062652067726561746572207468616e60008201527f20312e0000000000000000000000000000000000000000000000000000000000602082015250565b6000613301602383612f6c565b915061330c826132a5565b604082019050919050565b60006020820190508181036000830152613330816132f4565b9050919050565b7f4e487b7100000000000000000000000000000000000000000000000000000000600052601260045260246000fd5b60006133718261291d565b915061337c8361291d565b92508261338c5761338b613337565b5b828204905092915050565b60006133a282612d7e565b91506133ad83612d7e565b9250828201905063ffffffff8111156133c9576133c86131d6565b5b92915050565b7f5573657220646f65736e27742045786973740000000000000000000000000000600082015250565b6000613405601283612f6c565b9150613410826133cf565b602082019050919050565b60006020820190508181036000830152613434816133f8565b9050919050565b7f486f75736520646f65736e277420457869737420756e6465722074686973205560008201527f7365720000000000000000000000000000000000000000000000000000000000602082015250565b6000613497602383612f6c565b91506134a28261343b565b604082019050919050565b600060208201905081810360008301526134c68161348a565b9050919050565b7f4e487b7100000000000000000000000000000000000000000000000000000000600052602260045260246000fd5b6000600282049050600182168061351457607f821691505b602082108103613527576135266134cd565b5b50919050565b7f43616c6c6572206973206e6f74206120526567697374657220437573746f6d6560008201527f7200000000000000000000000000000000000000000000000000000000000000602082015250565b6000613589602183612f6c565b91506135948261352d565b604082019050919050565b600060208201905081810360008301526135b88161357c565b9050919050565b7f5573657220446f206e6f74206f776e207468697320686f757365000000000000600082015250565b60006135f5601a83612f6c565b9150613600826135bf565b602082019050919050565b60006020820190508181036000830152613624816135e8565b9050919050565b7f4e487b7100000000000000000000000000000000000000000000000000000000600052603260045260246000fd5b60006136658261291d565b91506136708361291d565b9250828203905081811115613688576136876131d6565b5b92915050565b7f4e487b7100000000000000000000000000000000000000000000000000000000600052603160045260246000fd5b7f55736572206973206e6f74207265676973746572656400000000000000000000600082015250565b60006136f3601683612f6c565b91506136fe826136bd565b602082019050919050565b60006020820190508181036000830152613722816136e6565b9050919050565b600081905092915050565b600061373f82612a22565b6137498185613729565b9350613759818560208601612a3e565b80840191505092915050565b60006137718284613734565b915081905092915050565b60008190508160005260206000209050919050565b6000815461379e816134fc565b6137a88186613729565b945060018216600081146137c357600181146137d85761380b565b60ff198316865281151582028601935061380b565b6137e18561377c565b60005b83811015613803578154818901526001820191506020810190506137e4565b838801955050505b50505092915050565b60006138208284613791565b915081905092915050565b7f486f75736520616c726561647920657869737473000000000000000000000000600082015250565b6000613861601483612f6c565b915061386c8261382b565b602082019050919050565b6000602082019050818103600083015261389081613854565b9050919050565b60006020601f8301049050919050565b600082821b905092915050565b6000600883026138e47fffffffffffffffffffffffffffffffffffffffffffffffffffffffffffffffff826138a7565b6138ee86836138a7565b95508019841693508086168417925050509392505050565b6000819050919050565b600061392b6139266139218461291d565b613906565b61291d565b9050919050565b6000819050919050565b61394583613910565b61395961395182613932565b8484546138b4565b825550505050565b600090565b61396e613961565b61397981848461393c565b505050565b5b8181101561399d57613992600082613966565b60018101905061397f565b5050565b601f8211156139e2576139b38161377c565b6139bc84613897565b810160208510156139cb578190505b6139df6139d785613897565b83018261397e565b50505b505050565b600082821c905092915050565b6000613a05600019846008026139e7565b1980831691505092915050565b6000613a1e83836139f4565b9150826002028217905092915050565b613a3782612a22565b67ffffffffffffffff811115613a5057613a4f612b2e565b5b613a5a82546134fc565b613a658282856139a1565b600060209050601f831160018114613a985760008415613a86578287015190505b613a908582613a12565b865550613af8565b601f198416613aa68661377c565b60005b82811015613ace57848901518255600182019150602085019450602081019050613aa9565b86831015613aeb5784890151613ae7601f8916826139f4565b8355505b6001600288020188555050505b505050505050565b6000613b0b8261291d565b91507fffffffffffffffffffffffffffffffffffffffffffffffffffffffffffffffff8203613b3d57613b3c6131d6565b5b600182019050919050565b6000613b5382612e69565b9150613b5e83612e69565b9250828202613b6c81612e69565b9150808214613b7e57613b7d6131d6565b5b5092915050565b7f446f6e74206861766520656e6f75676820706f696e747320746f206275790000600082015250565b6000613bbb601e83612f6c565b9150613bc682613b85565b602082019050919050565b60006020820190508181036000830152613bea81613bae565b9050919050565b6000613bfc82612d7e565b9150613c0783612d7e565b9250828203905063ffffffff811115613c2357613c226131d6565b5b92915050565b7f4e6f742076616c696420486f7573652049640000000000000000000000000000600082015250565b6000613c5f601283612f6c565b9150613c6a82613c29565b602082019050919050565b60006020820190508181036000830152613c8e81613c52565b9050919050565b7f5573657220646f65736e27742065786973740000000000000000000000000000600082015250565b6000613ccb601283612f6c565b9150613cd682613c95565b602082019050919050565b60006020820190508181036000830152613cfa81613cbe565b9050919050565b600081519050919050565b600082825260208201905092915050565b6000819050602082019050919050565b6000606083016000830151613d456000860182612a13565b5060208301518482036020860152613d5d8282612a79565b9150506040830151613d726040860182612a13565b508091505092915050565b6000613d898383613d2d565b905092915050565b6000602082019050919050565b6000613da982613d01565b613db38185613d0c565b935083602082028501613dc585613d1d565b8060005b85811015613e015784840389528151613de28582613d7d565b9450613ded83613d91565b925060208a01995050600181019050613dc9565b50829750879550505050505092915050565b6000606082019050613e286000830186612d8e565b8181036020830152613e3a8185612eec565b90508181036040830152613e4e8184613d9e565b905094935050505056fea26469706673582212209c68aa821eaf5814c224253830b1be6f9b953815e47768ed21a71edff2ec070c64736f6c63430008180033",
  "linkReferences": {},
  "deployedLinkReferences": {}
}